:020000040800F2
:10000000C8EB01201503000833030008E3290008AA
:1000100037030008390300083B0300080000000014
:100020000000000000000000000000003D03000888
:100030005703000800000000CB2900085B030008FC
:100040005D0300085D0300085D0300085D03000810
:100050005D0300085D0300085D0300085D03000800
:100060005D0300085D0300085D0300085D030008F0
:100070005D0300085D0300085D0300085D030008E0
:100080005D0300085D030008AF0400086B3300083F
:10009000B53200085D0300085D0300085D03000839
:1000A0005D0300085D0300085D0300085D030008B0
:1000B0005D0300085D0300085D0300085D030008A0
:1000C0005D0300085D0300085D0300085D03000890
:1000D0005D0300085D0300085D0300085D03000880
:1000E0005D0300085D0300085D0300085D03000870
:1000F0005D0300085D0300085D0300085D03000860
:100100005D0300085D0300085D0300085D0300084F
:100110005D0300085D0300085D0300085D0300083F
:100120005D0300085D0300085D0300085D0300082F
:100130005D0300085D0300085D0300085D0300081F
:100140005D0300085D0300085D0300085D0300080F
:100150005D0300085D0300085D0300085D030008FF
:100160005D0300085D0300085D0300085D030008EF
:100170005D0300085D0300085D0300085D030008DF
:100180005D0300085D03000800F002F800F0B2F81B
:100190000AA090E8000C82448344AAF10107DA45E2
:1001A00001D100F0A7F8AFF2090EBAE80F0013F082
:1001B000010F18BFFB1A43F00103184718AC0000E9
:1001C00038AC00000A444FF0000C10F8013B13F06B
:1001D000070408BF10F8014B1D1108BF10F8015BA0
:1001E000641E05D010F8016B641E01F8016BF9D193
:1001F00013F0080F1EBF10F8014BAD1C0C1B09D1EA
:100200006D1E58BF01F801CBFAD505E014F8016B5B
:1002100001F8016B6D1EF9D59142D6D370470000ED
:100220000023002400250026103A28BF78C1FBD8FF
:10023000520728BF30C148BF0B6070476E2906F0D7
:100240002381702906F07881662908F0F3866529F4
:1002500008F0F086672908F0ED866129AFF3008089
:1002600003681B0A28BF41F08001692906F0D0808D
:10027000642906F0CD80752906F0CA806F2906F042
:100280006587782906F04481E92906F0FD86E4298E
:1002900006F0FA86F52906F0F786EF2906F0628760
:1002A000F82906F043810368DB0928BF41F080018B
:1002B000632906F07E86732906F08386E32907F01A
:1002C0007180F32907F07680002070471FB508F091
:1002D000ACFE06F0C7FF04000020002108F058F92A
:1002E000401C60600020002108F03CF9E0601FBD68
:1002F00010B510BD07F0B0FA1146FFF7E7FF01F0A7
:10030000ACFB07F0D7FA03B4FFF7F2FF03BC07F02A
:10031000D7FA000015481649026800608A4203D0E7
:1003200014488047144800471448D0F800D040686B
:100330000047FEE7FEE7FEE7FEE7FEE71EF0040FDC
:100340000CBFEFF30880EFF30980806910F8020C0E
:1003500002F043BBFEE7FEE7FEE7FEE7FEE7000034
:1003600007480849084A094B70470000F01F002061
:10037000EFBEADDE37120008890100080000FF1F44
:10038000C8E50120C8EB0120C8E70120C8E701202B
:1003900051480168514A1143016051490A6840F2CD
:1003A000333002430A604E490C310A6882430A60C6
:1003B00049481430016841F4807101604948D0F81F
:1003C000041341F44031C0F8041340F2033181605A
:1003D00046F28611C160C16A21F47001C162C16A2E
:1003E00041F40011C16243F68A1141633E490A6833
:1003F00022F001020A600A68D207FCD10A6822F0E2
:1004000060620A600A6842F450620A60354A364BFC
:100410004C3208331A601B1D344A1A60324B0322D7
:100420001B1D1A60426842F480724260426822F0EA
:1004300000724260426822F0807242600A6842F0B4
:1004400001020A60816841F080418160016821F009
:1004500002010160416841F02001416024491020FF
:100460000870122000F02CB82048408870471F48C0
:1004700080887047012803D01C4931F8100070476C
:1004800000211C4A084652F82030401C19442028FC
:10049000F9D3C1F34F107047704717494FF48022CA
:1004A0000A601249091F0860122000F009B80D48BF
:1004B000016821F0040101600C48001F006800473A
:1004C00000F01F020121914040094FF0E02202EBB1
:1004D0008000C0F80011704730380240040040002E
:1004E0000008024000200140706402400400002027
:1004F00012E400E03803002080E100E02DE9F04341
:10050000CE4D286840F001002860CD48016821F0F8
:100510000C010160C16821F00C01C1604FF4802121
:100520008161026842F010020260026822F020023B
:100530000260826862F0300282608200826102683A
:1005400042F040020260026822F08002026082688B
:1005500062F0C00282604FF0400CC0F818C0026820
:1005600042F480520260026822F400520260826803
:1005700042F440528260026822F440320260C26853
:1005800022F44032C2602A6842F002022A60AD4A78
:10059000136823F00C031360AA4B0C331C6824F07F
:1005A0000C041C60DFF89C9209F11809C9F80010CE
:1005B000116841F010011160116821F020011160F3
:1005C0001F1F396821F030013960116821F4707102
:1005D0001160196821F4707119609B4EC10131607E
:1005E000994918390C6844F480340C600C6824F480
:1005F00000340C60944C103CD4F8008028F440384F
:10060000C4F800804FF08008C6F80080D1F8008060
:1006100048F48048C1F80080D1F8008028F40048F0
:10062000C1F80080D4F8008028F44048C4F8008065
:10063000D5F8008048F00408C5F80080082535602A
:100640000D6845F040050D600D6825F080050D60D2
:10065000256825F0C0052560C6F800C00D6845F482
:1006600080550D600D6825F400550D60256825F452
:1006700040552560156825F4407515601D6825F402
:1006800040751D60451535600D6845F480250D6089
:100690000D6825F400250D60256825F440252560AA
:1006A000156825F0C00515601D6825F0C0051D60A2
:1006B000156825F0404515601D6825F040451D6012
:1006C000156825F0406515601D6825F040651D60C2
:1006D0000D6825F440650D60251DD5F800C02CF48B
:1006E000406CC5F800C0D1F800C02CF0405CC1F8E7
:1006F00000C0D5F800C02CF0805CC5F800C0D5F86B
:1007000000C04CF0005CC5F800C04FF4004CC6F8C7
:1007100000C00E6846F080460E600E6826F0004667
:100720000E60266826F040462660C0F818C00468AF
:1007300044F080440460046824F000440460846849
:1007400024F0404484602024C9F80040106840F43C
:1007500080601060106820F400601060386820F439
:1007600040603860086820F440600860286820F421
:1007700040602860106820F040501060186820F039
:1007800040501860BDE8F08308B1402001E04FF40C
:1007900080002B498861704708B1082001E04FF4C0
:1007A0000020274988617047264810300068C0F350
:1007B000C030704770472348016821F00C01016088
:1007C0002049202018310860BFF35F8F1D4810308A
:1007D0000068C0F3400070471A4918310A6842F4B3
:1007E00000120A6008B1022001E04FF400300860F6
:1007F0001448016841F004010160704712490A6819
:1008000042F000420A6008B1022001E04FF40030DB
:100810000B498861086840F0040008607047084888
:10082000016821F00C010160074A4FF4004111609A
:10083000BFF35F8F0069C0F340007047303802405B
:100840000000024000040240180802402DE9F04177
:100850000446D0F8000101262F4D02282AD002209C
:10086000BDE8F081A8682154401CA860062812D178
:100870002279110601D5A17800E00021891D02F03E
:100880007F02E960502A04D16279012A01D18029CE
:1008900001D99020E4E7E968884206D10020A860E9
:1008A00001200326C4F800010BE0D4F80001012860
:1008B00002D106E04FF6FF7700F0B1F90146B842E9
:1008C000D0D13046CCE710B5134CD0F80022D4E993
:1008D000001319441344636003E010F8013B01F86E
:1008E000013B521EF9D210BD10B50B4C60680028B8
:1008F00011D000F0C7F900280DD0D4E9000100F0B4
:10090000A4F9064920688842084601D100F5007024
:1009100020600020606010BD10010020DC05002078
:10092000614810B5016841F4802101605E481038CB
:1009300001685E4A114301605D48016821F480113D
:100940000160016841F400110160011D0A6822F490
:1009500080620A6056490C310A6822F440120A602B
:100960000A1F136823F440131360514A243213689A
:1009700023F4706343F4E0631360036823F480039B
:100980000360036843F400030360086820F4400038
:100990000860106820F4704040F4E0401060454961
:1009A0005B2008804348002308300380001D03803B
:1009B0000A1D118841F400511180018841F0C001E5
:1009C00001803D48816D21F001018165816DC9077C
:1009D000FCD1816D21F060618165816D41F0006124
:1009E0008165816D41F488618165324C241F046604
:1009F000C365816A21F001018162816AC907FCD166
:100A0000816A21F060618162816A41F000618162E6
:100A1000816A41F4A06181620463284941634FF413
:100A20000061C162234908390B8823F040030B8021
:100A3000118841F00C011180816A41F0010181624D
:100A400010BD1D48C06A1E4AC0F50060116888428A
:100A500002D14FF6FF7070471848405C491C116086
:100A6000B1F5006FF7D1002111607047124A936D04
:100A700023F001039365936DDB07FCD15066D165CC
:100A80000C480838018821F0400101804FF00060D7
:100A90009060906D40F001009065704705480838FF
:100AA000008800F0400070474038024002002000FB
:100AB000000402400848004000600240DC090020B9
:100AC00020010020724810B5016841F0100101605A
:100AD0006F48143801686F4A114301606E4801681D
:100AE00021F480210160016841F400210160416826
:100AF00021F400714160C16821F44021C160816826
:100B000021F440218160416A21F0F00141F070013F
:100B10004162016821F480110160016841F4001113
:100B20000160C16821F40011C160C16841F4801105
:100B3000C160416A21F4706141F4E0614162C10227
:100B40008161016841F080710160016821F00071EC
:100B50000160816841F040718160016821F44001C9
:100B60000160C16821F40001C160C16841F48001E5
:100B7000C1604A49B620088100230B828B82888994
:100B800040F400508881888A40F0C0008882444840
:100B9000026822F0010202600268D207FCD10268FA
:100BA00022F060620260026842F000620260026845
:100BB00042F488620260394C3948241D08300460D0
:100BC000001F036036487838026822F00102026094
:100BD0000268D207FCD1026822F0606202600268FB
:100BE00042F000620260026842F4A06202602C4A95
:100BF000703A14602A4B2B4A6C3B1A609A15284BAA
:100C0000743B1A600A8822F040020A808A8942F006
:100C10000C028A81016841F00101016010BD204889
:100C200074380068204AC0F580701168884202D18B
:100C30004FF6FF7070471B48405C491C1160B1F5CE
:100C4000807FF7D1002111607047154A136823F0A7
:100C5000010313601368DB07FCD1114B0C331860E0
:100C60000F48001D01600D48018821F040010180FE
:100C70000B494FF00060AC390860106840F001008B
:100C8000106070470548008800F040007047000081
:100C900044380240010040000000024000100140C2
:100CA000B8640240DC11002024010020FE480168E5
:100CB00041F400310160FD4929220A80FB4A40F2DB
:100CC000E731121D1160F94A49100C321160F749E1
:100CD00008390A8842F001020A80F44910390A886A
:100CE00042F060020A80091F0A8842F001020A806D
:100CF000EE4928390A8842F001020A80016841F46D
:100D000080310160EA4820210181018941F0070119
:100D10000181002101854FF6FF71C162018841F018
:100D2000010101807047E248406A80B27047401A72
:100D300080B27047DC48001F016841F0100101607B
:100D4000DC48142101854FF6FF714162C1620188C0
:100D500041F008010180018841F0010101807047E4
:100D60004142D4484162018841F00101018001887B
:100D7000C907FCD17047CC4B10B51B1F186840F059
:100D800008001860C8482438016841F00801016073
:100D900001680907FCD5016821F008010160C64817
:100DA00000210180001F0160BF4A143A106840F022
:100DB00001001060C148046824F001040460046864
:100DC00044F002040460046A24F00F04A41C0462CA
:100DD000B94C481E241D2060B74C5720203C208071
:100DE000B5481038048844F001040480001F0488CA
:100DF00044F001040480B0482838048844F0010419
:100E00000480186840F002001860AD480180001F9F
:100E10000160106840F002001060AA48016821F0EB
:100E200001010160016841F002010160A548203024
:100E3000016821F00F01891C0160016821F0F001B7
:100E400041F0200101609E4940F21940091D0860EF
:100E500041109B48143001600068994918310860BE
:100E6000974947F270000C390880081D018841F449
:100E70008071018092481438018841F0010101809D
:100E800010BD00B50246FFF74EFF0146FFF74BFFCE
:100E9000401A80B29042F9D300BD8B4948434FF4C9
:100EA0007A71B0FBF1F0B0F1807F01D3012070477F
:100EB0004FF0E0210A6942F001020A614861002016
:100EC00070474FF0E020006900F480307047F0B5C3
:100ED0007E4B7F4C1D1D28B97C482830006818685F
:100EE000206028687048001F016841F0805101604F
:100EF0007848016841F4807101606B482C300168CA
:100F000041F480310160016821F4803101600168A1
:100F100041F440710160016841F4004101606B4A95
:100F2000CA20243210605320106068480C300168D9
:100F300041F08001016001684906FCD56349103128
:100F40000E6842F20F776FF30E063E440E600E6895
:100F500026F4FE0646F4C6060E60216819605E4956
:100F60002960016821F08001016001680906FCD454
:100F7000FF211160016821F020010160F0BD4A49A4
:100F800010B5091F0A6842F080520A6051490A6888
:100F900042F480720A6044492C310A6842F480327B
:100FA0000A600A6822F480320A600A6840F2051377
:100FB0001A430A600A6842F400420A6028B14048B5
:100FC0002838018841F001010180404ACA202432BA
:100FD0001060532010603D480C30016841F08001E2
:100FE000016001684906FCD5384910310B6842F2AE
:100FF0000F746FF30E0323440B600B6823F4FE039E
:1010000043F480330B603249304B096819601B1D73
:1010100031491960016821F0800101600168090609
:10102000FCD4FF211160016821F02001016010BD96
:101030002A490840264908607047244BCA212433B6
:1010400019605321196021490C310A6842F080026D
:101050000A600A685206FCD5204A10401B4A1060FC
:10106000086820F080000860FF201860704730B5E5
:10107000164DCA2224352A6053222A60134C0834A4
:10108000226822F480722260221D136843F001035B
:1010900013601368DB07FCD0104B18400B4B40F07B
:1010A00000401C3318601BE04438024028440140D3
:1010B0000040014000100040280C004000000240A9
:1010C0002804004000040240D01B500000280040CB
:1010D0002801002000700040024413007F7F3F0081
:1010E000C1F30E001A4940F070600860106820F0EB
:1010F00001001060106820F480701060206840F4D7
:1011000088502060106820F001001060FF202860E7
:101110001048016841F4003101600E480838016848
:1011200041F4003101600B480C30016841F400319A
:10113000016009494015086030BD05481C38006849
:101140000348443800680249403909687047000084
:1011500044280040083C014004E100E0484A0020E7
:10116000116841F4803111604FF47053116800F13F
:10117000010011F4003F01D19842F7D11068C0F38B
:101180004040002856D03E484030016841F0805130
:1011900001603C48016841F4804101603A4940F2F5
:1011A000056008603648083001680160016841F454
:1011B00000410160016841F4A0510160016821F41F
:1011C000F81141F440210160016821F07C51016077
:1011D000016841F080610160016841F06051016087
:1011E000016821F040410160016841F080410160E7
:1011F000011F264B0B60116841F08071116011686E
:101200008901FCD5016821F003010160016841F00A
:10121000020101600168C1F381010229FAD1184974
:101220001B4884310860106840F0806010601068CE
:101230000001FCD57047174810B5016841F47001F2
:1012400001600F48016841F0010101600C4A002172
:10125000083211600268104B1A400260031D0F4AE9
:101260001A60026822F48022026005480C30016096
:10127000FFF774FF07494FF000608039086010BD28
:101280000038024000700040003C02400C5443070C
:101290000040005088ED00E0FFFFF6FE1030002413
:1012A00050F821007047F94A10B502F14400118E40
:1012B0008171090AC171918E0172090A4172A0F10E
:1012C000C401896E81720A0AC2720A0C0273090E85
:1012D0004173FFF7D7FC002806D0EC480E21BDE88B
:1012E00010404430FFF7B1BC10BDF0B4E74B0188AB
:1012F000E74A803BE54F10294CD01BDC4FF003063A
:1013000001291DD00124022505292ED00B292AD11F
:101310004188B9638088F863022838D0032834D024
:101320009C8064204143FF2091FBF0F09060F0BC72
:1013300002F0BEBF12293AD0142914D14088F5E733
:101340009E624088586400EE100AF8EE400A93ED61
:101350001C0AB8EE400A20EE800ADFEDCE0A80EECD
:10136000201A83ED051AF0BC70474088D86420B17C
:10137000012804D0042805D103E01C6402E01E64A7
:1013800000E01D649E629863EDE79D80C9E7002040
:101390009880C6E74188D16081885161C188D16158
:1013A000018911614189916180891062DBE741887F
:1013B000596381883962C18879620189B96240893B
:1013C000F862D0E770B5B14E0022A6F1800309297A
:1013D0002AD008DC012911D0032913D0052919D0FE
:1013E00007296FD11BE00025A94C0B2927D0102914
:1013F00045D0122952D0142964D15CE00180042226
:10140000B18E0AE00180318E4180B3F8441006228B
:10141000818057E00180998E0422418052E0018052
:10142000996E082241604DE00180B3F8541041806C
:10143000B3F870108180198A0822C18042E0A26846
:101440006424C2EB022292FBF4F2541E9A64FE2C36
:1014500001D2521C9A649A8822B1012A03D0022A2E
:1014600002D10AE002221A65018033F8481F418048
:10147000198981800822C58024E00322F3E70180D6
:10148000A1894180A18A8180A18BC180218A0181AB
:10149000218B4181218C0E22818113E00180998E64
:1014A0004180318C8180B18CC180318D0181B18DC1
:1014B0000E22418106E00180218941808580C5801E
:1014C0000A220581104670BD014673A001F0F0FBB1
:1014D00001F04DFCFCE77648016841F00101016034
:1014E00073481030016841F0005101607148016893
:1014F00041F440710160C16821F44071C1606E48DF
:10150000016841F00101016070476B4920310860BA
:1015100070470FB4FEB50022BDF82000CDE90002EF
:1015200066A109AD0291812812D1DDE90941644E1D
:1015300000920835306BA04212D0B4F5004F06D0AF
:101540008120CDE9000402915EA001F0B1FB34637B
:10155000BDF82000A0F50061023901D12868019092
:101560005E4A6946002000F029F8012802D15B4854
:10157000FFF7A9F9FEBC5DF814FB454910B55848C2
:1015800048603C220021424801F085F848F2D044EE
:10159000012804D053A221468120FFF7BAFF01237E
:1015A0003C2200213A4801F03EF8002805D02146AF
:1015B000BDE810404DA28120ABE710BD2DE9F05FE2
:1015C0004FF0000C14460300664604D00246B3F800
:1015D00000C0981D05E021B10D88002210461FFAB9
:1015E00085FC4FF0000984F803904FF0010B502761
:1015F00084F804B06771DFF89480A51DDFF890A02F
:101600002F4FA8F18008C4F80092BCF5147F3CD09D
:1016100028DC4FF081034FF0020BBCF1150F6BD0AB
:1016200011DCBCF1110F68D006DCBCF1020F6ED0EA
:10163000BCF1050F6CD17FE0BCF1120F69D0BCF199
:10164000140FF7D13EE1BCF1810F72D0ACF5007CF4
:10165000BCF1130C6ED0BCF1010F6CD0BCF1100FBB
:10166000E8D194E0BCF5016F7ED053DCBCF5006F8F
:101670007BD043DCACF5007CBCF1510C76D0ACF5F2
:10168000806CBCF1350CD5D1D1E056E1AC01002025
:10169000201C00200CFEF94B0D0A45786974207758
:1016A000697468206572726F723A202573000000B9
:1016B000303802400000024000740040000000008A
:1016C0005C1C00200D0A415054206E6F74696669DD
:1016D000636174696F6E3A2025730000D80300209F
:1016E0000B00010045455772697465004545566514
:1016F0007269667900000000F7E04BE0ACF5006C21
:10170000BCF1010C76D0BCF1010F93D172E050E036
:1017100066E049E0ACF5006CBCF1110C61D0BCF1A5
:10172000010F61D0BCF10F0F51D0BCF1110F88D166
:1017300036E0B9E08CE0ACE0062121805421A170B4
:101740000A462371FE49284605F0FBF82B35DAF8E6
:10175000000045F82B0C3120E87534202876302025
:1017600068763920A87602E05BE040E0ECE03220C9
:10177000E876352028774D2068776120A877792092
:10178000E87785F820900126C7F834B043E0402080
:10179000B862E5E0B86BC7F82C9040F01000B86371
:1017A0003220C8F80C00DBE0B86B20F01000B86302
:1017B000D6E0C7F83490BA6B484622F01002BA63FC
:1017C00000290DD0A4F800B0A070E07022E0C8F8A5
:1017D0000CB0B96B41F01001B9630F21C8F80810C3
:1017E000BEE0C8F820B0BBE0C8F85C90B8E0FFF7F6
:1017F0007CFDB5E00BB1907800E0486881B22846E6
:10180000FFF7E0FD40F602022280A070207940F050
:10181000800121710126207900067DD5A078801DE8
:101820009CE00B21CAF83410FFF7A7FEF2E7CAF8D4
:101830000CB0CAF814B0CAF810B04B21CAF818B0EE
:101840000846CAF8081002F033FDFFF796FE87E05D
:101850009178B86B61F38610B8639178890702D5E7
:1018600040F0800001E020F08000B863DAF80C104E
:1018700054460A2903D1C0F38010FEF7BFFF206948
:101880000A286DD197F83800C0F3C010FEF7A4FF06
:1018900066E040F215212180388FC0F380120BEAF8
:1018A00090101118A170B5E723804422A270237113
:1018B000A5F80090888868808A68A2A1281D04F095
:1018C0003FFDA7E70268CAF800204268CAF8242052
:1018D0008268CAF82820C268CAF82C20026ACAF8AE
:1018E0003020406ACAF838003AE0162121802821C9
:1018F000A1702371DAF800002860DAF8240068602B
:10190000DAF82800A860DAF82C00E86056460120D2
:10191000FEF7B0FD286100E01FE00020FEF7AAFD01
:1019200068610220FEF7A6FDA861D8F85800E861BA
:10193000306B2862B06B68626CE7D17888F8001071
:101940008349042008600BE040F252212180917805
:10195000A17098F80010E1705CE70620C4F800025E
:101960003046BDE8F09F70B57A4C794A0021E56EAB
:10197000083A052D47D2DFE805F003091A3C480074
:1019800010B1106840043ED401203BE00020E16526
:1019900002F0F7FC70A001F08BF974490B2048634A
:1019A000FFF7EBFDFFF7BFF9608002202AE038B1B6
:1019B0001068400404D56EA0E16601F079F922E0D8
:1019C000FFF7B1F96188FFF7B2F9B0F5FA6F1AD9EC
:1019D0006AA001F06DF90220FFF79BFD6A49886B50
:1019E00020F0160088630320E066002002F060FC0F
:1019F00009E0FFF798F96188FFF799F9B0F57A6F78
:101A000001D90420E066E06E70BD60494FF48000AB
:101A1000086040F6B830FFF734FABFF34F8F5C48E8
:101A200001685C4A01F4E06111430160BFF34F8F2C
:101A3000FEE770B50D4601004FF000000CD1002DFF
:101A40000AD0012405EA0401202902D152A001F0A4
:101A50002FF96400F6D1012070BD2DED048B07F045
:101A6000E4FAFEF74BFDFFF736FD55490A20086002
:101A7000464940200860FFF719F96420FFF70DFA86
:101A8000FFF758F9FFF777F90020FFF7D1FA0120A7
:101A9000FFF71DFA01F03EFDFFF714F8FEF740FFD7
:101AA00001F03EFA01F08AF9FEF772FC01F022FB28
:101AB0004448FEF7F2FC62B600233C2219462B484C
:101AC00000F0B1FD294F4049386890FBF1F038280B
:101AD00001D03E4838603220FFF7D3F92A482A491E
:101AE00040F27B2B806B41F2707820F0100088630D
:101AF000B86B4FF4C879A0F27B21584568D004DC5C
:101B0000E63166D0732907D1C3E0A1F58071A93908
:101B100079D0B1F5F57F77D00E484FF47A71F9623C
:101B2000C0F87C9042F6E0620167C0E91D8200F1D6
:101B30008002116000210161786B01240B2849E0CB
:101B4000FC910008252D36332E363373000000003B
:101B5000180402402C0100200D0A506F776572694D
:101B60006E6720646F776E2E2E2E0000201C0020E2
:101B700063616E63656C6C65640D0A00676F6F640A
:101B80006279650D0A0000005C1C00201808024004
:101B90000CED00E00400FA050D0A415054206E6F70
:101BA00074696669636174696F6E3A206A6F7973EC
:101BB0007469636B2073657474696E6773000000E9
:101BC00020740040D542000840420F00007E5603BA
:101BD00034E052E013D0E7A001F06AF8FC607C61C9
:101BE000EE483C61BC61806F38634B20B860EC48C4
:101BF0007862EA4880300068B8620020B8636420E8
:101C0000FFF73FF901E04FE027E0E6A001F050F8D0
:101C1000EEA001F04DF8E3A001F04AF8F4A001F0C5
:101C200047F89FEDF90BFAA053EC102B01F040F8A8
:101C3000FE480068800442D5FDA141E0D7494FF439
:101C4000FA520A6742F6F8224A674FF60C028A6790
:101C500040F25232CA67B2220AE0D04941F6583205
:101C6000C1E91C284EF66022C1E91E294FF4F17229
:101C7000CA4B80331A6008615EE7C84941F65832A2
:101C8000C1E91C2848F2DC22C1E91E294FF4D772B1
:101C9000EEE7C24942F22832C1E91C284FF6DC7255
:101CA000C1E91E29B422E3E7BC4947F23052C1E939
:101CB0001C284FF6DC72C1E91E29A022D8E7DFA15B
:101CC000E1A000F0F5FFE44C0120206003F0CDFB23
:101CD000002003F044FC03F0C9FAE04802F06EFD76
:101CE0004FF4207003F004FC0020FEF7C3FB40F625
:101CF000543188427ED949F2704002F042FBD84EFE
:101D0000042737606420FFF7BCF84FF4802844466E
:101D1000C6F800806420FFF7B4F837606420FFF74E
:101D2000B0F834604FF47A70FFF7ABF8DFF86CB2BC
:101D30004FF0010A5C460020CBF81CA0FEF79AFB8E
:101D400040F6E441884205D2E06940F00200E061DB
:101D5000C4A000E0C9A000F0ABFF0220FEF78AFBA0
:101D600040F2A461884203D9E06940F00400E061D8
:101D70000220FEF77FFB40F2BC75A84203D2E06967
:101D800040F00800E061207FC0F38100032845D0C7
:101D9000C1A000F08DFF0120FEF76CFB40F23A710C
:101DA000884203D9E06940F01000E0610120FEF7AD
:101DB00061FBA84203D2E06940F02000E061207F8F
:101DC000C0F3011003282BD0BBA000F071FF02204C
:101DD000FEF750FB81460120FEF74CFB0546002034
:101DE000FEF748FB01464B462A46BAA000F060FFCA
:101DF000E06900E01DE03F28376013D0BFA000F08D
:101E000057FF4FF4FA742046FFF73BF8C6F80080FE
:101E100000F036FD2046FFF734F88BE7C0A0B8E7A6
:101E2000C7A0D2E7CCA000F043FF002002F0A9FA3F
:101E3000FEE75A4DD1A14FF4FA602A6902F08EF8FC
:101E4000FEF7B8FCB86802F033FA00263046266088
:101E500002F097FADFEDD08A9FEDD09A9FEDD08AFD
:101E600005F18004BA4640F27B22DAF83800A0F28D
:101E70007B21904229D004DCE63141D0732907D17F
:101E800049E0A1F58071A93950D0B1F5F57F2AD08C
:101E90004FF47A70CAF82C00C5E91C0842F6E061DC
:101EA000C5E91E1920602E616D4F083F38685F49F3
:101EB00040F34030401C096841F34011491C08427E
:101EC00056D0286A01283BD03CE04FF4FA512967EC
:101ED00042F6F82169674FF60C01A96740F25231CA
:101EE000E967B22109E041F65831C5E91C184EF600
:101EF0006021C5E91E194FF4F17121602861D3E713
:101F000041F65831C5E91C1848F2DC21C5E91E1913
:101F10004FF4D771F1E740F6B831C5E91C184CF61B
:101F20002031C5E91E1940F22621E6E744F620617A
:101F3000C5E91C184FF6DC71C5E91E192E21DCE736
:101F40000120E8653868216C40F3C000401C8842DD
:101F50000AD0686E40B942F21070686638680007AF
:101F600002D4E86D28B1EE65386840F3C00019E18D
:101F70001FE11BE10D0A496E76616C6964204441E2
:101F8000544120696E2045452C206C6F6164696E58
:101F9000672064656661756C740000002C01002088
:101FA000968E3B000D0A2D2D2D2D2D2D2D2D2D2DF9
:101FB0002D2D2D2D2D2D2D2D2D2D2D2D2D2D2D2D51
:101FC0002D2D2D2D2D2D2D2D000000000D0A4B4CFB
:101FD00053313031204C6173657220536F757263D9
:101FE000652020202020090920202020202000001A
:101FF0000D0A0A4669726D77617265207265763ADC
:102000003031303031310000000000000000454028
:102010000D0A53797374656D20636C6F636B3A09B5
:10202000252E3266204D487A00000000100802403C
:102030006F6E207468652068756200007374616E4D
:1020400064616C6F6E6500000D0A4D6F64653A093E
:102050000925730D0A00000020030020A0A200083B
:10206000180402400D0A2074656D70207465737445
:10207000202D207061737365640000000D0A2054E8
:10208000454D502054455354202D204641494C4540
:1020900044202121000000000D0A204558544552DB
:1020A0004E414C20494E2054455354202D2046414A
:1020B000494C4544202121000D0A204C41534552F2
:1020C0002054455354202D204641494C454420215D
:1020D000210000000D0A2054657374207265737529
:1020E0006C74733A2054202564202D2050202564E0
:1020F000202D204520256420000000000D0A204BE3
:102100004C532053454C4654455354202D204641B2
:10211000494C454420210D0A200D0A2000000000F2
:102120000D0A2065787465726E616C20696E20748A
:10213000657374202D207061737365640000000066
:102140000D0A206C617365722074657374202D20F4
:1021500070617373656400000D0A206B6C732073EB
:10216000656C6674657374202D207061737365648B
:1021700020210D0A200D0A200000000054686F7213
:102180006C616273204B4C5325640A537752657619
:1021900020303130303131000AD7233CCDCCCC3D1A
:1021A00000007A4400F10100206408E00120E865A5
:1021B000DAE6EE653868000701D40F20E0602E6291
:1021C000686E08B1401E6866E86D012803D0A96EEC
:1021D00021F0010106E0296E09B9696FA965A96EB0
:1021E00041F00101A966296E814201D00321A96253
:1021F0002866FE48FEF72AFB902812D0DFF8ECB3E1
:10220000DBF8000101280CD1F94A00215846FFF7FC
:10221000D5F9012802D1F648FEF755FB0221CBF88B
:102220000011FEF761FBFEF74CFE00287ED0A86E81
:1022300020F0E000A866A988012904D002290DD069
:1022400040F0200001E040F01000A8663868BB466E
:102250008004A86E05D440F0080004E040F040007F
:10226000F3E720F00800A866E24800688006A86E40
:1022700002D440F0020001E020F00200A866002035
:10228000FEF7F8F8A0F5F870182190FBF1F0E8637C
:10229000322804DDEE65A86E40F0804002E0A86EB2
:1022A00020F08040A866E86A401EE862401C34D1F5
:1022B0003220E8620020FEF7DDF86169081A00D5D7
:1022C0004042052801DA012700E000270120FEF73F
:1022D000D1F8A169081A00D54042042801DA01208A
:1022E00000E000200742E0690CD0092805DA401C14
:1022F000E061A86E20F0004002E0A86E40F00040CF
:10230000A86602E008B1401EE0610020FEF7B2F8C6
:1023100060610120FEF7AEF8A061296BA86B8142D5
:1023200006D0286301206870032000E078E1A862ED
:10233000B14F97F83800C00611D5A8680A280CD903
:10234000FEF7B1FFAE60E86810B1401EE86006E03D
:10235000B86B20F01000B86301E0401CA860A749EA
:10236000A86E0840A8660220FEF784F8A96E41EA2C
:102370000020A866A86B012810D10220FEF77AF889
:10238000296FDAED090A484300EE100AF8EEE00A78
:10239000B8EE400A80EE201A85ED051A05F114000A
:1023A00090EC020A30EE600ABDEEC00A10EE100A90
:1023B000002800DA404206F049FB9FED911B53ECE8
:1023C000112B06F095FC06D20320A86295ED050AB4
:1023D00085ED060AE661287801281ED001F05EFF2F
:1023E0007860A96B0429B9697ED019B10A2901D096
:1023F00040007860DBF8000040F30010401C3861BA
:1024000001F07CF97861786810B141F2342068629B
:10241000386910B141F234206862774F07F11C032C
:102420007868FA684142786901F0ABF9B861DBF885
:102430000000C0F3C030FFF796FAF860B86901F009
:1024400063FAB8696862E06808B1401EE0609AED1E
:102450000B0A5746F8EEC00A80EE881AD5ED050A39
:10246000B4EEE01AF1EE10FA05D2B8EEC00AC0EEF2
:10247000080AC5ED050AF5EEC00AB0EE600AF1EEF5
:1024800010FA03D29FED600A85ED050ADFED5F0AC1
:1024900060EE200A95ED1C0AB8EE401A80EE810A23
:1024A00084ED040ABDEEC00A84ED0D0AA86B012874
:1024B00074D0A86A00284FF0010059D0FDF7DAFF68
:1024C00097ED0A0AD5ED050AB8EEC00A20EE200AFB
:1024D000BDEEC00A10EE101A88423DDA95F82800C9
:1024E00000F00200A86200E007E0D5E91E02811AB0
:1024F000A86D814257D9104454E000297FF476AF8B
:1025000000283FF477AF6168884200D0A6601228A7
:1025100005DD95ED050A30EE680A85ED050A10F136
:10252000120F05DA95ED050A30EE280A85ED050A49
:102530003F2805DD95ED050A30EE490A85ED050ACF
:1025400010F13F0F05DA95ED050A30EE090A85ED29
:10255000050A0320A8624DE7E96FA86D884201D9FA
:10256000401AA86595F8280000F00100A8621AE05A
:10257000FDF780FF97ED0A0AD5ED050AB8EEC00A0F
:1025800020EE200ABDEEC00A10EE101A8842A86D97
:1025900005DAA96F884206D2401C03E014E0002847
:1025A00001DD401EA865A96DA86F814201D80846CB
:1025B00000E0A865002800DAAE65E86D08B9AE65F0
:1025C000E661A86D01F0DDFED5E9151048434FF630
:1025D000FF71B0FBF1F008492063886A00281DDD17
:1025E0004207A0F10100886214D511E00C00002020
:1025F000D8030020100802405C1C00207F00F8FF78
:102600009A9999999999A93F000000000CFEF94BFD
:10261000002001E0B868401C01F04AFE00F0D2FF43
:1026200001F0C2FE1FE42DE9F041174604460126E1
:10263000C81998460D46B0F5006F27D2002000F06B
:1026400050FC032000F055FCC5F3072000F051FCBE
:10265000E8B200F04EFC002511E0002000F049FC3B
:10266000B8F1000F06D046B114F8011B814204D125
:10267000012603E004F8010B00E000266D1CBD42BA
:10268000EBD3012000F02DFC012E02D00120BDE88B
:10269000F0810020FBE72DE9F0478F1888460646B9
:1026A000B7F5006F02D30120BDE8F0870C4640E08B
:1026B00004F01F05444500D0ADB9002000F011FC26
:1026C000062000F016FC012000F00BFC002000F0BA
:1026D00008FC022000F00DFCC4F3072000F009FC08
:1026E000E0B200F006FC16F8010B00F002FC1F2D12
:1026F00002D0781EA0421BD10025012000F0F1FB82
:102700004FF47A79002000F0ECFB052000F0F1FB9B
:10271000002000F0EEFB8246012000F0E2FB28469C
:102720006D1C484501D90220BEE75FEACA70E9D1B5
:10273000641CA742BCD8012000F0D3FBB3E7000023
:1027400070472DE9F04198B00027804615971697FD
:102750001B2515AAC7A1179703F0C0FFC64E00247A
:1027600006EB0410416815A804F030F968B1641C48
:102770001B2CF5DDC14C072D59D008DC042D2DD0C4
:10278000052D3CD0062D06D13EE02546F2E7172D5B
:1027900052D0182D63D0206820F01F00C4E9000734
:1027A000B7A0A76000F084FA002406EB0415AB681C
:1027B0006A68187800285ED0B4A1684603F0C0FDAE
:1027C0006946B4A0EA6800F073FA641C1B2CECDBC9
:1027D000B3A000F06DFA18B0BDE8F08114AAB1A161
:1027E000404603F07BFF149800B10120FEF706F885
:1027F000149808B1012100E00021ACA014E0FEF71C
:102800000EF80146B0A00FE014AAA6A1404603F0BE
:1028100065FF149800B10120FDF7DEFF149808B1A0
:10282000012100E00021AEA000F042FAD3E7FDF75D
:10283000C2FF0146B1A0F7E714AA9AA1404603F0EF
:102840004DFF14980128206804D020F0100020606B
:10285000B0A0BEE740F010002060B9A0B9E7C248C0
:102860000068000402D5C1A000F022FAC9494FF463
:1028700080000860AFE7C8A1684603F061FD9FE7EC
:102880003EB57E484F210C3000F026FA002450B1AE
:102890007A490C314F2802DC0C54401CFAE7774887
:1028A0000C30FFF74EFF00F062FAFEF73CFABB4D2A
:1028B0002988FEF73CFAB0F5FA7F06D9FEF733FA1D
:1028C0002880E86838B10020E86000F030FD98B159
:1028D00000216A4605E00120F6E743181B795354AE
:1028E000491C037B8B42F8DC11446B464C70027B25
:1028F0000168ABA000F0DCF900F006FE010006D094
:10290000686820B9AFA000F0D3F9012068605B4887
:102910000078C0060FD594480068C0F34004A8684A
:10292000844208D0AF488069A04203D10021AEA004
:1029300000F0BEF9AC603EBD10B502202DED048B59
:1029400082B0FDF797FD08EE100A0020FDF792FD1A
:102950000446AA48008FC00501D5A9A100E0AAA19C
:10296000ABA000F0A5F9B8EE480ADFEDAD9A60EE35
:10297000290A9FEDAC9A80EE890A10EE100A06F043
:10298000E3FA00EE104A41EC180BB8EE400A60EE94
:10299000290A80EE890A10EE100A06F0D5FA41ECF9
:1029A000100B8DED008B53EC102B9FA000F080F9E5
:1029B0008C480168A5A000F07BF902B074A0BDECC2
:1029C000048BBDE8104000F073B9A348016821F002
:1029D00080510160A1A000F06BB90146A7A000F0F2
:1029E00067B9FEE770B5254A054600885268012997
:1029F00001D1022A03D00023012902D009E00123DA
:102A0000FAE7012A05D1A0F58062923A01D00124AB
:102A100000E00024194A1C43926809B9022A03D035
:102A20000023234311B109E00123FAE7012A05D16C
:102A3000A0F58062913A01D0012000E00020184307
:102A4000012816D1012907D093A000F031F9287987
:102A5000000603D5AE7802E091A0F6E70026B61D89
:102A6000002404E0295D90A000F022F9641CB44227
:102A7000F8DB70BD253973003C900008DC120020A3
:102A80000D0A4D656E753A0A000000002573202579
:102A9000733A00000D0A252D3138730925730000A3
:102AA0000D0A3E00252A7325640000000D0A5472A9
:102AB000696720492F4F2023312073657420746F7C
:102AC0002025640D0A0000000D0A54726967204930
:102AD0002F4F2023312069732025640D0A00000048
:102AE0000D0A5472696720492F4F202332207365E5
:102AF0007420746F2025640D0A0000000D0A5472C2
:102B0000696720492F4F2023322069732025640DE7
:102B10000A0000000D0A506F736974696F6E2074AB
:102B2000726967676572207265706F7274696E672B
:102B30002064697361626C65642E0D0A00000000F8
:102B40000D0A506F736974696F6E207472696767DC
:102B50006572732077696C6C206265207265706F96
:102B6000727465642E0D0A00100402400D0A55733C
:102B70006520706F77657220627574746F6E207453
:102B80006F207475726E2063756265206F66662EA5
:102B90000D0A00001808024025733A0000020020C8
:102BA0000D0A43414E2052782066726F6D202564D5
:102BB0002C2025642062797465733A2022257322C3
:102BC0000D0A00000D0A43414E206572726F723A81
:102BD00020737461747573203D20307825582E0D54
:102BE0000A000000201C00200D0A54726967676506
:102BF0007220617420252E33660000005C1C0020CA
:102C000076616C6964000000696E76616C696400CD
:102C10000D0A4545446174613A09257300000000BE
:102C20003333534000F07F450D0A4144433A09567F
:102C30006964203D20252E336620562C205672656F
:102C400066203D20252E3366205600000D0A532FA6
:102C50004E3A09256C75000004ED00E00D0A46654A
:102C60006174757265206E6F742079657420696D6A
:102C7000706C656D656E7465642100000D0A5356B5
:102C800043206E756D626572202575207761732013
:102C900063616C6C656400000D0A54783A20000092
:102CA0000D0A52783A2000002530325820000000EA
:102CB0000FB410B53E4C03AA6068B0F57A7F00D31C
:102CC00001BE21680844029903F028FB61680144B1
:102CD000616010BC5DF814FB2DE9F047344D80466F
:102CE0000026A8688946374608B9C5F80C804FF613
:102CF000FF7AFDF7A6FE044650452DD0082C12D0D1
:102D00000A2C26D00D2C24D0A9684945F1D22146A1
:102D100028A0FFF7CDFFE86800F8014BE860A8683D
:102D2000401CA860E5E7A8680028E2D0082121A09F
:102D3000FFF7BEFF20211FA0FFF7BAFF08211DA04B
:102D4000FFF7B6FFA868401EA860E868401EE8606C
:102D5000CFE70126AF60CCE73EB1E86800F8017B21
:102D6000E860A0EB0800BDE8F0870020FBE710B5A5
:102D70000F4C6068002811D0FDF790FE00280DD0A0
:102D8000D4E90001FDF772FE0B492068884208462D
:102D900001D100F57A7020600020606010BD10B590
:102DA000FDF77CFE0028FBD0BDE81040DFE7000007
:102DB00010020020256300003813002070B5544B2A
:102DC000186840F00400186051481030016841F460
:102DD000004101604F48016821F080710160016885
:102DE00041F000710160041D216821F480512160CF
:102DF00048490C310A6822F040720A600D1F2A68A7
:102E000062F040722A60434A2432166826F4702623
:102E100046F4C0261660066826F48016066006682A
:102E200046F400160660266826F4806626600C6864
:102E300024F440140C602C6864F440142C60146872
:102E400024F4706444F4C0641460046824F48004BE
:102E50000460046844F400040460086840F48000DE
:102E60000860086820F400000860106820F47040D2
:102E700040F4C0401060186840F00800186026490F
:102E80000420086024481838016841F010010160EE
:102E9000016821F020010160001D016821F004019A
:102EA00001601D480C38016821F030010160001FED
:102EB000016861F0300101601848018821F040018B
:102EC0000180001F018821F0400101804FF4497109
:102ED0000180018841F040010180104808300088DD
:102EE00070BD08B1042001E04FF480200A49086059
:102EF00070470A49091D0A889207FCD5074A08321B
:102F000010800888C007FCD01088C0B2704700004D
:102F10003038024000080240180C0240043C0040D7
:102F200030B56E4A106840F0010010606B481430F4
:102F3000016841F4805101606948016821F48041D1
:102F40000160016841F400410160416821F08001A5
:102F50004160C16821F44041C160816841F4404151
:102F60008160016A21F0704141F0A0410162016875
:102F700021F480610160016841F4006101604168F1
:102F800021F020014160C16821F44061C16020212D
:102F90008161816841F440618160016A21F47001BE
:102FA00041F4A0010162106840F0020010604D4839
:102FB000911401604B481838016841F0807101603C
:102FC000016821F000710160001D016821F4805149
:102FD000016044480C38016821F040710160001F15
:102FE000016841F0407101603F49888820F040004D
:102FF0008880088820F0400008800124B4FA84F01A
:10300000C0F12003D800083800F0380040F44170C7
:103010000880888840F002008880106840F48000B2
:1030200010603248026822F0010202600268D20792
:10303000FCD12E4D4FF400627C3D2A60026822F0E4
:1030400060620260026842F0C0620260026842F49C
:1030500080620260026842F0400202602248234A15
:103060000C30083210600020121F1060088840F0F9
:103070004000088088891E489C40B0FBF4F030BDB9
:1030800010B14FF4805001E04FF0805015490860B6
:103090007047164A136823F0010313601368DB07B7
:1030A000FCD1124B0C3318601048001D01600F4911
:1030B000C0147C390860106840F00100106070474F
:1030C0000A4884380068000505D5074800890006CD
:1030D00001D40120704700207047000030380240C2
:1030E00000000240180402400030014088640240A1
:1030F000406F4001FC4900200860486088608C31C6
:10310000086048608860F948016841F00201016088
:10311000F748016821F480210160016841F4002131
:103120000160011D0A6822F400720A60F0490C3146
:103130000A6822F440220A600A1F136843F44023FD
:103140001360EB4A2432136823F0F00343F090033A
:103150001360036823F480330360036843F400338F
:103160000360086820F440300860106820F00F0009
:1031700040F009001060DD481030016841F0007136
:103180000160DA481038016841F00071016001689F
:103190008901FCD5016821F000710160D549012049
:1031A0000860D44903201431086001207047D149D8
:1031B0001C310A6822F040420A600A6800F0404070
:1031C00002430A607047CB48016821F001010160A9
:1031D0000168C907FCD1C748083001684901FCD51E
:1031E0007047F0B5C44C22880D2A01D90120F0BDEA
:1031F00069B3C100091DC14B186840F00100186097
:10320000BE4D1C352E680120904086432E60BB4E7B
:103210000C363768074337601E1D37680743376031
:10322000B64E403646F83210361D46F83210B349D5
:1032300014310E6886430E602968014329601868BE
:1032400020F001001860521C22800020F0BD4105D2
:10325000D1E710B561B3C000001DA8490A6842F06B
:1032600001020A60A54A1C32136823F001031360AF
:10327000A24B0C331C6844F001041C600B1D1C683D
:1032800044F001041C609D4B403318601B1D186006
:103290009A481430036823F001030360106840F07B
:1032A00001001060086820F001000860002010BDD7
:1032B0004005D2E78F4B30B50C331868800735D006
:1032C000894A516802EB011001F1010151608C49FA
:1032D00000F10C000C6865074FF0000403D4447340
:1032E0000D686D0D04E0012545730D68C5F3D1052A
:1032F00005600968C1F3400181738149091D0968AE
:1033000001F00F0101737E490831096841607C4971
:103310000C31096881605068082800D15460106839
:10332000401C1060186840F02000186030BD10B5D7
:10333000704C1434206820F0020020606A4B1A6838
:1033400042B1996803EB0110491C0C3099600829BF
:1033500002D003E0002003E000219960521E1A60B1
:10336000216841F00201216010BDF0B561480830CC
:103370000068C00757D05F4E1436306820F0010057
:103380003060594D8C352A68002A4CD0A9685C4CB5
:1033900005EB01100C30491C0027303CA960276068
:1033A000D4F800C0437BBBB30368DB001B1D4CEAB1
:1033B000030CC4F800C0D4F800C0837B03B102231F
:1033C0004CEA030CC4F800C0DFF834C14368ACF128
:1033D000280CCCF800300CF1040C8368CCF80030D9
:1033E000474B2C3BD3F800C02CF00F0CC3F800C0A7
:1033F000D3F800C0007B00F00F004CEA000CC3F8CB
:1034000000C0306840F001003060206840F00100EA
:103410002060082904D004E0FFE703885B05C6E7C5
:10342000AF60521E2A60F0BDF0B5324C14342168F2
:1034300021F0010121602C4B00258C3319680829EB
:1034400001D3012013E05A6803EB0211521C5A60A9
:1034500090E8C400C068C1E90570C1E90326586856
:10346000082800D15D601868401C186000202168A1
:1034700041F00101216020494A68012A06D1204A11
:10348000303A136843F0010313604D60F0BD194AF0
:103490001432106820F001001060164808300168EE
:1034A00041F08001016001680906F8D4016821F04B
:1034B000010101600F4818300168124B194001608A
:1034C000094900208C310860486088600A49012061
:1034D0004860C1044FF0E020C0F88012106840F04E
:1034E0000100106070470000081B002030380240C7
:1034F00000040240006400402002002000660040FA
:10350000B06500408CFF00FF01480068EAE700005A
:10351000186400402848016841F002010160274812
:10352000016821F480510160016841F4005101609B
:10353000016821F480410160016841F400410160AB
:103540001E482030016821F0706141F00071016077
:10355000016821F0704141F00051016016481030BF
:10356000016841F00401016015494FF0FF30086027
:1035700013481438018840F20112114301801049A8
:103580000320243908800E482C38018841F00101BD
:10359000018000204FF47A71401C8842FCDB08490E
:1035A000002008390860704705490839086800227A
:1035B0000A6000B270470000303802400004024048
:1035C0002C0800402DE9F047374F384C3846FA6850
:1035D00040690A3A364DDFF8DC80DFF8DC90374E80
:1035E0002168062A04D2DFE802F00F0618232529F5
:1035F000FDF715F908E02968012923D01FE0012013
:1036000000E00020FDF7FAF838690A3806281CD2D5
:10361000DFE800F0471F2A36393DD8F80010D9F806
:10362000002041F34031491C42F34012521C11402A
:1036300041B904E03168092904D000E011B1012842
:10364000DFD0DCE70128DCD1D9E7BDE8F047FDF7A2
:10365000B2B82868012820D01BE0012000E000203B
:10366000BDE8F047FDF7B8B8D8F80000D9F8001069
:1036700040F34030401C41F34011491C084000E039
:10368000206850B905E03068092806D001E02068BC
:1036900018B1B8690128E2D0DFE7B8690128DED1A6
:1036A000DBE7BDE8F0870000201C0020540100206B
:1036B000880100201004024010080240C8010020C8
:1036C00030B504460020FE4B024603EB02152D6880
:1036D000A54202D0521C0D2AF7D939B1012909D0CF
:1036E000022902D103EB0210C06830BD03EB0210C7
:1036F000406830BD03EB0210806830BD70B5F04CFF
:103700000546203C0026E1680520062937D2DFE87F
:1037100001F0030C36192C2F012D30D10120202669
:10372000E060FDF700FB208029E0FDF7FCFA21882E
:10373000FDF7FDFAC82822D9012D01D1032015E09B
:10374000002013E0012D04D0E060FDF7ECFA60806A
:1037500015E0FDF7E8FA2188FDF7E9FAB0F57A7F80
:103760000DD904201026E06009E045B9E06006E0CC
:10377000FDF7D9FA6188FDF7DAFAC828E0D83046B3
:1037800070BD2DE9F047CE4F8046203F99463869FD
:1037900092460D460026786158B10C2809D0FDF7F5
:1037A000C2FAB988FDF7C3FA42F21071884200D913
:1037B0003E61BAF1010F04D138690C2801D00C2008
:1037C00038610F2D01DD012000E0002015F10F0F01
:1037D00001DA012100E00021441AFDF7A4FAB988BA
:1037E000FDF7A5FAC82800D2002458EA040002D048
:1037F000FDF799FAB880002D01DB284600E0684209
:10380000642805DDB869052803DA401CB86100E0CA
:10381000BE61012C06D0601C06D05FEA886005D42A
:10382000386908E0002102E0012100E00221386946
:10383000FFF746FF3861A34907282FD008283DD05D
:103840000A2802D00C2852D14DE000EE105AB8EEF2
:10385000C00ADFED9D0A20EE200ABDEEC00A10EE80
:10386000100A00B300EE105A8A68B8EEC00A20EEC3
:10387000200ABDEEC00A10EE100A10448860142819
:1038800001DA142002E0642801DD64208860D9F8A0
:10389000000040F02002C9F8002028E08B4A601C9C
:1038A00002D0012C05D022E0106802281FDA401C4B
:1038B00002E01068D8B1401E106018E0844A601C15
:1038C0004FF0010302D0012C04D010E0106840B189
:1038D000042306E01068012801D0042801D01660F6
:1038E00005E0136003E0BAF1000F00D13E61D7E9B3
:1038F0000402904205D00028886800D0401C00F0E7
:10390000D7FC3869BDE8F0872DE9F04F6C4C0646CE
:10391000203C2DED028B9FB0E0694FF6FF79B0425D
:1039200010D070B9002000F09DFD4D4618237F2275
:1039300010210020CDF8009001F0DEFC284600F0B8
:1039400091FDE661DFF890A14FF47A70DFF8808195
:10395000DAF80010DFF87CB1B1FBF0F5594F0D2E0D
:103960007ED2DFE806F007AC7DABAAA97D7DA87DFD
:10397000A77DA600D8F80000DFF86081012801D0FB
:1039800057A222E00220FCF775FD0146DAF800009C
:10399000414300EE101AF8EE400A97ED090AB8EE1E
:1039A000C01A80EE810A00EE905AF8EE600A88EDA7
:1039B000000AF4EEC00AF1EE10FA05D200EE105A39
:1039C000B8EE400A88ED000A4AA20BA8A16802F0EE
:1039D000B7FC4D480068012807D04C49DBF80000CF
:1039E0000968884203DD4AA107E04EA105E052487C
:1039F000006808B151A100E055A101A802F0A0FCA7
:103A00000221002000F02CFF01A801F013FC474622
:103A1000D8F8000005F098FA41EC100B51A153ECD6
:103A2000102B01A802F08CFC0421002000F018FFEC
:103A300001A801F0FFFB4FA101A802F081FC97ED66
:103A4000000AB5EEC00AF1EE10FA31DD10EE100AF0
:103A50004D499FED4E8B884210EE100A13DB00E0BB
:103A600057E205F071FA41EC100B04F005FB53EC42
:103A7000182B51EC100B05F03DF841EC100B45A153
:103A800053EC102B10E005F05FFA41EC100B04F042
:103A9000F3FA53EC182B51EC100B05F02BF841EC1A
:103AA000100B40A153EC102B01A802F049FC85E05B
:103AB00080E008E286E129E1BDE158E1FBE0D1E0E8
:103AC00048020020201C0020CDCC4C3D600100208D
:103AD00064010020680100209C01002040010020BA
:103AE000504F574552204C4556454C202020202011
:103AF00000000000504F574552204D4F44554C4157
:103B000054494F4E200000008801002038900008E2
:103B10004F5645522D54454D5045524154555245EE
:103B2000000000008788204C4153455220204F4E12
:103B30002087882000000000B8010020496E7465CD
:103B4000726C6F636B206F70656E20210000000047
:103B50002020204C41534552204F46462020202013
:103B60000000000025352E3266206D5720202020D1
:103B70002020200020202020202020202020202065
:103B80002020202000000000CDCCCC3DE17A14AEF6
:103B90004761114025352E32662064426D20202079
:103BA0002020200025352E32662064426D20202002
:103BB00020200000FEA101A802F0C2FB0621002087
:103BC00000F04EFE01A801F035FBFE4890ED000A22
:103BD000F8EE400A9FEDFC1A80EE810A10EE100A02
:103BE00005F0B2F941EC100BF8A153EC102B01A831
:103BF00002F0A6FB01AA15A8A16802F0A1FB97EDAF
:103C0000000ADFEDF70A20EE200ABCEEC00A10EE33
:103C1000100AB0FBF5F56D1C4AF6555000F022FC79
:103C200018237F221021002000F032FF4F46484623
:103C300000F018FC022D07D9681EC2B2162312210B
:103C40000220009701F058FB002000F00BFCE8B2C6
:103C500016237E221221009701F04EFB384600F019
:103C600001FC3EE0DFA20BA8A16802F069FBE2A123
:103C700001A802F065FB0221002000F0F1FD01A87F
:103C800001F0D8FAE1A101A802F05AFB04210020BA
:103C900000F0E6FD01A801F0CDFAE1A101A802F0D3
:103CA0004FFB0621002000F0DBFD01A801F0C2FA65
:103CB000AFF2401211E0DFA20BA8A16802F040FBB6
:103CC000E1A101A802F03CFB0221002000F0C8FDA8
:103CD00001A801F0AFFAE0A132E015A8A16802F056
:103CE0002FFB0021084600F0BBFD0BA801F0A2FA53
:103CF0000821002000F0B4FD15A801F09BFAE66150
:103D00001FB00020BDEC028BBDE8F08FD7A20BA83E
:103D1000A16802F015FBD8F8000018B1012803D003
:103D2000D7A102E0DBA100E0DEA101A802F008FBC0
:103D30000221002000F094FD01A801F07BFAAEA161
:103D400001A802F0FDFA0421002000F089FD01A87D
:103D500001F070FAD8A101A802F0F2FA06210020C1
:103D600000F07EFD01A801F065FAD8A2B5E7D8A160
:103D700001A802F0E5FA01AA0BA8A16802F0E0FA96
:103D8000D8A101A802F0DCFA0221002000F068FDB1
:103D900001A801F04FFAB0A101A802F0D1FA042164
:103DA000002000F05DFD01A801F044FAC2A101A8C5
:103DB00002F0C6FA0621002000F052FD01A801F031
:103DC00039FA36E0CCA101A802F0BAFA01AA0BA890
:103DD000A16802F0B5FAB8681E2801DA1E2002E0D8
:103DE000642801DD6420B8600246C8A101A802F081
:103DF000A7FA0221002000F033FD01A801F01AFA11
:103E0000C7A101A802F09CFA0421002000F028FDBF
:103E100001A801F00FFAC6A101A802F091FA06214B
:103E2000002000F01DFD01A801F004FAB86800F0C0
:103E30003FFAC4A251E7C7A20BA8A16802F080FA1A
:103E4000C9A101A802F07CFACC4F3868A0F5C06186
:103E50000E3903D1CAA101A802F072FA3868A0F5A0
:103E600000717B3903D1CBA101A802F069FA0221CC
:103E7000002000F0F5FC01A801F0DCF92A46CAA1F7
:103E800001A802F05DFA0421002000F0E9FC01A87D
:103E900001F0D0F9DBF80020052102EBC20090FB15
:103EA000F1F32033C5A101A802F04AFA062100204F
:103EB00000F0D6FC01A801F0BDF9C4A101A802F0F0
:103EC0003FFA01AA09E7AFF254320BA8A16802F049
:103ED00037FAAFF2603101A802F032FA0221002075
:103EE00000F0BEFC01A801F0A5F90421002000F0BB
:103EF000B7FC01A801F09EF9B9A101A802F020FACF
:103F00000621002000F0ACFC01A801F093F9B9A251
:103F1000E3E6AFF2A03101A802F012FA022100207C
:103F200000F09EFC01A801F085F90421002000F0BA
:103F300097FC01A801F07EF90621002000F090FC1A
:103F400001A801F077F9B0A20BA8A16802F0F8F976
:103F50003246B2A101A802F0F3F9B2E70FB4F0B50E
:103F6000BDB0044644AA6846439902F0D7F96A46B0
:103F7000ABA1104602F0E4F928AB1EAAA9A168463D
:103F800002F0ACFBAB4D1EAA14A8A96802F0D8F948
:103F900028AA32A8A96802F0D3F9002601F066F930
:103FA0004FF4784000F05EFA0022A34B114645E141
:103FB0002D696E662064426D202020202020202064
:103FC00000000000DC0100200000C84225352E3230
:103FD00066206D412020202020202020200000008D
:103FE0000000FA424F5054494F4E204D454E552047
:103FF0002020202000000000557365207468652093
:10400000776865656C82202000000000746F207363
:10401000656C6563742074686520202000000000D2
:104020007375626D656E752E202020202020202063
:10403000000000003120434F4E54524F4C20534F4C
:1040400055524345000000005072657373204D4582
:104050004E5520616E64200075736520746865207C
:10406000776865656C8220200000000053454C4550
:10407000435420434F4E54524F4C20200000000028
:10408000574845454C2B534F4654574152452020E5
:1040900000000000534F465457415245204F4E4CAC
:1040A0005920200045585445524E414C204F4E4C0B
:1040B0005920202000000000746F206368616E6743
:1040C000652E202020202020000000000909090082
:1040D00032204252494748544E4553532020202015
:1040E000000000005072657373204D454E552061ED
:1040F0006E6420200000000053455420425249477E
:1041000048544E4553532020000000004272696716
:1041100068746E657373203D2025332E3064000073
:104120004D6F76652074686520776865656C8200E0
:10413000746F206368616E67652020202020202036
:1041400000000000202020202020202020202020EF
:10415000202020003320494E464F524D4154494FB4
:104160004E20202000000000576176656C656E6768
:1041700074683A204E414E20000000003C010020AF
:10418000576176656C656E6774683A312E35756D6A
:1041900000000000576176656C656E6774683A369A
:1041A00033356E6D000000004D617820706F7765CB
:1041B000723A25646D5720202000000054656D7010
:1041C0003A25648443282564844629005377526540
:1041D000763A20303130303131202020000000008C
:1041E000536176696E677320706172616D7320260A
:1041F00000000000706F776572696E6720646F77EA
:104200006E2E2E2E00000000556E68616E646C6587
:10421000642073746174653A000000002564000036
:1042200025730A00255B5E0A5D0A255B5E0A5D0A4E
:10423000000000002802002084930008104600F0CF
:1042400031FD4FF6FF7000F00DF90621002000F05F
:1042500007FB14A800F0EEFF14A800F0EBFF082104
:10426000002000F0FDFA32A800F0E4FF0A4D40F60D
:10427000FF702860FCF757FD0746FCF754FD3946F0
:10428000FCF755FDA042F8D32E6000F0EFFF3DB0E3
:10429000F0BC5DF814FB00002074004010B5FFF77F
:1042A00083F9C001192190FBF1F000F3070010BD64
:1042B0001E2801DA1E2002E0642800DD6420044983
:1042C00000EB8000C00008607047002070470000CD
:1042D0002074004070B51F4800261F4C006801285C
:1042E0000AD01E481E4AA168408842F82100491C95
:1042F00001F01F00A06008E01A481B4D006801286B
:1043000005D030462E6000F03CF8266070BD206875
:10431000A0B1FCF7ACF815496268096B8B1A5843D9
:1043200040F63F7390FBF3F010442860814200DABE
:1043300029602868BDE8704000F023B8FCF794F8C5
:104340001E2803D26068411C6160F3E701202060F1
:1043500070BD000064010020E8020020040000207D
:10436000380300208801002084010020201C002048
:1043700010B14FF4007001E04FF00070094908607F
:10438000704710B504460020FFF7F2FFC4F3072082
:10439000FEF7AFFDE0B2FEF7ACFD0120FFF7E8FF4E
:1043A000002010BD1808024070B52B4C012504F107
:1043B0001801E06820B1012819D0022841D134E069
:1043C000254E1036D6E9000188423CD90020FEF780
:1043D00057FED4E90410C4E906102049884200D1F0
:1043E0001F4971603160A060E560606029E0086885
:1043F000A168884216D90878498821806168091D1A
:104400006160DA2802D0C02802D004E0012000E078
:104410000020FCF7B9F921886068FEF73AFE022017
:10442000E0600EE00020E0600DE0FEF749FE30B1F4
:104430002188606808446060C4E9020501E0E06822
:1044400008B1012070BD002070BD10B5FFF7ACFFB2
:104450000128FBD010BD0000F4020020981C0020B1
:1044600020AD00200D4910B50968CC8AC882098B9F
:1044700001F0FFFD204610BD70B50E46054601F067
:1044800057F80446284601F05AF83046FFF7EAFF8D
:104490000546204601F053F8284670BD1803002059
:1044A00000B90D484078704710B500F0FAFF0B488E
:1044B0000068C17C407D0844C0B210BD052800D30F
:1044C0000420C0EBC001064800EB8100C17C407DA8
:1044D0000844C0B2704700000CA800081803002070
:1044E000A83D01202DE9FC47B14E18B93068C068DD
:1044F000FFF7D6FF34684FF6FF79627D6779104485
:10450000C5B2E3787819984225D801F037F83068B9
:10451000427DDAB1018A11F4405F17D00B044FEAF3
:10452000C17301D50BB911E003B14B460093447937
:104530008904224402F10102D3B201D5827800E05D
:104540000279641CE1B2007801F018F93068417911
:104550002944417120E0218ADFF858C25FEA81785E
:104560000AD59CF8001011B9B918994202D301205C
:10457000BDE8FC8760710FE09CF8002012B9C01AFA
:10458000C5B26371C80700D04846CDE90050A27893
:104590006178207801F0CEF930680178017100204F
:1045A000E6E710B500F07DFF8349002008708048E1
:1045B00080490068008A40F30020401C087010BD4C
:1045C0007B4810B50068027981788A4200D9017170
:1045D0004279C1788A4200D941710179817141796A
:1045E000C17100F0CBFFBDE8104000F0EDBE704996
:1045F000162209680978401AC0B2B0FBF2F0401CDC
:1046000000EB400202EBC00001EB4000C0B270477B
:10461000F8B5674C05462168088A02044FEAC07065
:1046200001D508B911E008B14FF6FF700090087984
:104630000A7D4B79497802444E19D2B2B34201D374
:10464000591B491CC9B201F099F820680179027D13
:1046500011440171F8BDFEB504460A2870D00D2C36
:104660006ED0534E092C30680BD0C068FFF718FF8E
:1046700005463068027981788A4223D9491C017144
:104680005EE00079FFF7B3FF316805460A78904293
:1046900056D0C868FFF704FF3468217CC90701D0F1
:1046A0004FF6FF710091617863790A18934201D344
:1046B000191A491CC9B220792A4601F05FF83068FE
:1046C00005713DE0D0E90221204600F037F90100F4
:1046D0000DD00C7804B98C783068028A920507D422
:1046E0000379621E1A4483789A4201DD0120FEBDDF
:1046F000C268477953684278BA1AAA4201DB00229D
:1047000001E0AA1A521ED2B28DE80E00791BC378BE
:104710008278491CC9B2007900F03AFA3068017910
:10472000027D8B181D1983789D4201D9037107E022
:104730002144017122B1C068FFF7B2FEFFF768FFA4
:104740000020FEBD70B50446FFF72BFF0A2C0FD0EA
:10475000174D0D2C10D02046FFF77DFF98B128682B
:10476000007C00060FD40020FFF7BCFE58B907E01C
:104770000020FFF7B7FE06E028680178017102E02B
:104780002046FFF768FFBDE8704019E770B50E4698
:10479000054600F0CDFE0446284600F0D0FE304627
:1047A000FFF7D0FF2046BDE8704000F0C8BE000013
:1047B00018030020140300203103002070B5254D9C
:1047C0002968CC6800B92448C86002698A60027808
:1047D0008A744078C874C6B200F0FBFD2868761E63
:1047E0004178427931448A4205DAC9B24171C278CE
:1047F000914200D9427101798278914200D91146E3
:1048000081714179C17100F0DFFD204670BD10B5A6
:1048100000F047FE0F480068C06810BD70B50E4636
:10482000054600F085FE0446284600F088FE304626
:10483000FFF7C4FF0546204600F081FE284670BD04
:10484000052800D304200549C0EBC00001EB80001F
:10485000C0687047180300200CA80008A83D01207C
:1048600070B50C46054600F01CFE12480268D37C69
:10487000907C03FB04316843527DBDE87040491EC3
:104880001144C0B2C9B200F017B82DE9F041154685
:104890000E46044600F04CFE0746204600F04FFE50
:1048A00029463046FFF7DCFF3846BDE8F04100F00E
:1048B00046BE00001803002070B504460D4600F007
:1048C000F0FD1D480268117808195478C3B26019C8
:1048D000C0B2994200D90B469178994200D20B465A
:1048E000844200D92046D178814200D20846937193
:1048F000D0711371517D29B16318834201D954716C
:1049000001E0401A5071BDE8704000F05DBD2DE936
:10491000F04115460E46044600F00AFE07462046C2
:1049200000F00DFE29463046FFF7C6FF3846BDE8C9
:10493000F04100F004BE0000180300202DE9F0470C
:104940008946C2B1117802F1020C5FEA010A16D061
:10495000514600274B08FC1804EB440565442E78AB
:1049600086420FD895F8018080450BD3A978F2B222
:10497000801A0844C0B2B9F80C10814211D200204C
:10498000BDE8F08743B1864201D91946E2E7C91A6A
:10499000E7B211F0FF01DDD151788142EFD0084636
:1049A000D6E7D9F808100A7832B10222D9F80430D3
:1049B0001A4402FB0010E3E70422F7E7124900B5AE
:1049C0000A684AB1D16839B19268FFF7B7FF002889
:1049D00003D0017811B102E0082000BD81780846BB
:1049E00000BD70B50E46054600F0A2FD04462846FF
:1049F00000F0A5FD3046FFF7E1FF0546204600F038
:104A00009EFD284670BD0000180300202DE9F843E4
:104A100007460C4615461E46DDF8209000F041FD85
:104A20005748D0F8008098F800C00CEB070098F8C1
:104A30000170C0B23919BB190CEB0502C9B2D2B270
:104A4000DBB2844500D9604698F80240844200D227
:104A50002046944200D22246824200D202468F4231
:104A600000D9394698F803408C4200D221469C4236
:104A700000D223468B4200D20B46424D00242C70BC
:104A8000CDF8009001F087F8BDE8F84300F076BD5E
:104A9000F8B507460C4615461E4600F002FD38489C
:104AA000D0F800C09CF800E00EEB07009CF8017005
:104AB000C0B23919BB190EEB0502C9B2D2B2DBB2D2
:104AC000864500D970469CF80240844200D22046B8
:104AD000944200D22246824200D202468F4200D93E
:104AE00039469CF803408C4200D221469C4200D2B9
:104AF00023468B4200D20B46224D00242C709CF89A
:104B00001040E40701D0204C00E0204C24880094A1
:104B100001F041F8BDE8F84000F030BD2DE9F84F54
:104B20009846DDE90A4591468A46064600F000FDB2
:104B30000746304600F003FD2346424649465046AC
:104B40000095FFF763FF3846BDE8F84F00F0F7BC6B
:104B50002DE9F0471E46904689460546089C00F020
:104B6000E7FC0746284600F0EAFC23463246414669
:104B70004846FFF78DFF3846BDE8F04700F0DFBC40
:104B800018030020310300203603002034030020E6
:104B90002DE9FE4F82460CA89146B0E884011078BA
:104BA000002803D0054603D1D47802E09578FAE7CF
:104BB0005478002C39D0002D37D0384ED6F800C0AC
:104BC000A8B39CF8100002F10206C00700D08020B4
:104BD000B8F1000F5DD0B8FBF4F21FFA82F8BCF810
:104BE0001020120401D540F020002FB13944E21BFF
:104BF00008FB0766C9B294B205EB0A020C44521EC8
:104C0000641E92B2A4B24D464A4500D92A469C423F
:104C100000D91C46224D0023D2B22B700096CDE95C
:104C20000180E3B2504601F00BF8BDE8FE8FFFE7CC
:104C3000161D50780122B2EB901F00D100E0002237
:104C400000F03F00B8F1000F02D0B8FBF4F80EE01E
:104C5000082806D805FB00F808F10708C8F3CF08B4
:104C600007E000F107084FEAD80808FB05F81FFA2B
:104C700088F8202800D31F20002AB0D00828AED8FA
:104C80009CF8102040F04000D207A8D040F08000EF
:104C9000A5E7EA1DC2F3CC08A1E700001803002035
:104CA000310300202DE9FE4306460F461D4690467F
:104CB00000F0F7FB234C002D206801784078314448
:104CC0003844CEB2C7B222D008F0FF0029462A6984
:104CD000FFF734FE00281AD024682178B14216D894
:104CE000A278B24213D36178B94210D8E378BB42BC
:104CF0000DD3154C002121706C688DE813003946E6
:104D00003046FFF745FFBDE8FE4300F037BCBDE885
:104D1000FE832DE9F0471E46904689460546089CCD
:104D200000F006FC0746284600F009FC2346324600
:104D300041464846FFF7B6FF3846BDE8F04700F069
:104D4000FEBB000018030020310300202DE9F047CE
:104D50008568044600272878002870D0DFF804957D
:104D6000D9F80010088A020706D52878092801D04A
:104D70000D280AD16D1CF8E7C0B2C0F38102012AE8
:104D800003D0C0F30110022801D108780871256012
:104D900000266560A6810121287800286CD00A28A9
:104DA0006AD00D2804D009280CD0202811D012E098
:104DB000D9F80000027C12F00C0F09D1F1B3017890
:104DC00001716BE0D9F80000027C12F00C0F15D0D5
:104DD0002020A7896668FFF7F1FD0146D9F8000099
:104DE00082780378D31A5B1C8B4217DCD9F8001049
:104DF00000788978081A401CA0813CE0A7890079D6
:104E0000C8463844C0B26668FFF7F1FBD8F8001016
:104E10000979401AA189401A81B2DFE7B0F8108001
:104E200090F804C04FEA8853002BA389634410DA3A
:104E3000C8F3810CBCF1020F08D001E01CE059E07E
:104E40004FF0000C6344934216DC1DE0A1F1010C0D
:104E5000F8E790F814C08C4463445B1E934213DD62
:104E600056B1D9F80000007CC0F38110012803D1AD
:104E70006660A781751C6D1CA560216808780028F4
:104E800038D02878A8B90DE0A289114489B2A1814F
:104E90002268954202D0007D0844A08165606D1CA7
:104EA000002179E7D9F80000007CC0F381000328D5
:104EB0000AD162681078202801D0092804D18A42DA
:104EC00002D00EB16660A781D9F800202946137C74
:104ED00008781B0605D560B10A280FD0491CA160CF
:104EE000F5E730B10D2807D00A2807D0092805D0EA
:104EF00006E00120BDE8F0870220FBE7481CA06027
:104F00000320F7E72DE9F84F05468068002870D0A8
:104F1000FFF747FBD34E3068C068FFF7C1FA04467D
:104F20003068C1784278A1EB020101F10101CFB2F2
:104F3000018A0B0401D5CB0710D000239946CA4B38
:104F40001B780BB1A74254D3C1F30111B04603291A
:104F500006D0022904D001297ED072E00123EDE7BA
:104F600090F804A0D5F808B000262846FFF7EEFE1A
:104F700001280ED801D1761CB6B2C5F808B0D8F811
:104F80000000012E80F804A00CD9417D721E51430F
:104F900009E0032801D1761CB6B2D8F800000178E8
:104FA0000171E2E70021027CC9B2C2F30112032AB7
:104FB00020D004FB0611B9423BD9417D7A1E0B1962
:104FC00092FBF3FC03FB1C2290F801C08C4462446A
:104FD000DFF894C2D2B242719CF800C0BCF1000F5D
:104FE00017D0791A91FBF4F1711A8EB2111941712F
:104FF00019E01DE14378621E1A4404FB0611D2B287
:105000004271B9421DD2791A01EBD17102EB6101F3
:1050100016E03819401E90FBF3F0301A86B202E019
:105020002846FFF793FE3000A6F10106B6B2F7D18D
:1050300007E0427DC1782244C6F1010302FB03115F
:1050400041712846FFF782FE0646D8F800004FF669
:10505000FF7A018A4A0500E007E014D54279A242AE
:1050600011D3B9F1000F03D00DE0611E1144E7E741
:10507000C90700D051460091111BCBB2827841780C
:10508000007800F07BFB002E7ED0D8F800100B8A51
:10509000C3F38100032802D0022811D01FE08A78D0
:1050A0000878171AAA8907F1010C944506DDBA1A87
:1050B000521C02EBD27200EB6200C0B208710EE02B
:1050C0008F780A78A889A7EB020C0CF1010C8445B3
:1050D00004DDA7EB000000F10100C2B20A71D804A0
:1050E0001CD50A790F78BA4218D9B9F1000F15D139
:1050F000D80700D0504600904879CB78984200D825
:105100000346497801EB040C604501D3011B491C9F
:10511000521EC9B2D2B2384600F030FBD8F80010A7
:105120002868097C007811F00C0F04D00D2801D0FC
:10513000092800D12020FFF78EFAD5E90001884226
:105140000CD1D8F80010088A820420D50F798A780B
:1051500097421CD8B9F1000F03D018E0401C28601A
:10516000DCE7C00700D0504600904879CB789842E1
:1051700000D80346497801EB040C604501D3011BBC
:10518000491CC9B2384600E00EE000F0F7FA032EE1
:1051900003D12046FFF7A6F980BB2846FFF7D6FDCE
:1051A00006007FF472AF29E0D8F80000058A15F4F4
:1051B000405F23D0B9F1000F20D1E90700D051465C
:1051C00000914179C378994200D80B46427816196C
:1051D000B14203D3A1EB040202F10102D1B2AA044D
:1051E00001D5827802E00279A2F10102D2B2EC0488
:1051F00001D5007800E0007900F0C0FAD8F800008E
:10520000028A110510D54179C37899420CD2B9F1BF
:10521000000F09D1D20700D0524600928278491C73
:10522000C9B2007800F0AAFABDE8F84FFFF7C8B994
:10523000BDE8F88F1FB502906846FFF763FE1FBDFB
:1052400070B50E46054600F073F90446284600F096
:1052500076F93046FFF7EEFF2046BDE8704000F0DB
:105260006EB90000180300201403002038B520494F
:105270000020087000F015F91E4C2068017CC90759
:1052800001D04FF6FF710091C378827841780078A1
:1052900000F074FA00F072F9206802780271417827
:1052A000C37C1944491EC9B24171832A01D98322A2
:1052B0000271C278914200D9427100F085F82068ED
:1052C000017881714178C171BDE8384000F07CB847
:1052D00070B5054600F02CF90446284600F02FF979
:1052E000FFF7C4FF2046BDE8704000F028B9000079
:1052F00031030020180300202DE9F84307460D462E
:1053000016469946089C00F0CCF82D48D0F800C00D
:105310009CF8008008EB06019CF80160CAB208EB1B
:1053200007007119C0B206EB0903C9B2DBB28045B0
:1053300000D940469CF80250854200D2284695424A
:1053400000D22A46824200D202468E4200D931461D
:105350009CF803508D4200D229469D4200D22B4634
:105360008B4200D20B46174E002535709CF810502A
:10537000ED0700D0E443A4B2009400F0FFF900F080
:10538000FDF8BDE8F84300F01FB82DE9F84F984646
:10539000DDE90A4591468A46064600F0C9F8074607
:1053A000304600F0CCF82346424649465046009528
:1053B000FFF7A2FF3846BDE8F84F00F0C0B8000084
:1053C0001803002031030020464900200968887630
:1053D0007047444810B5006883780478817C1B1BB3
:1053E000C27C5B1C8B4200DCD9B2C37844781B1BA7
:1053F0005B1C934200DCD9B2037D8B4201D3491E72
:105400000175417D914201D3521E427510BD35494F
:1054100010B50968002283230A704A708B70A1239B
:10542000CB708A71CA71304B0A71012811D80724D8
:105430004C710A82CB601C698C601C788C745B7820
:10544000CB740A754A7558B94FF6FF70C8820A8343
:1054500006E0C86838B1C87C401E4871FFF7B9FF44
:10546000BDE81040B0E75878F6E72DE9F04100F0CC
:1054700051FE070012D11D4D1A4E0024C4EBC4008A
:1054800005EB800030600020FFF7C1FF641CE4B230
:10549000052CF3D3002085F88C0035603846BDE834
:1054A000F08110B50F4C206818B9FFF7DEFF002817
:1054B00017D10E4890F88C10052901D2206805E01C
:1054C000042180F88C10094870302060C06830B921
:1054D000FFF7CBFF002804D12068002801D0FFF798
:1054E00073FF10BD180300200CA80008A83D012080
:1054F00070B50546FFF7D5FF0C4801680C8A0D8290
:10550000FFF762FF204670BD70B50E46054600F0FD
:105510000FF80446284600F012F83046FFF7E8FF7F
:105520000546204600F00BF8284670BD1803002001
:10553000104890F88C00052800D3002070470528FB
:1055400000D304200B4981F88C00C0EBC00001EBB4
:10555000800009490860018BC08A00F08ABD10B53F
:105560000146FFF7E5FF04460846FFF7E8FF20463F
:1055700010BD0000A83D0120180300202DE9F05FB8
:105580002D480078002842D12C4982462C4C2D4FC2
:1055900081F800A0237839788B4238D32A4E2B4DDE
:1055A00032782878824232D3A22B01D3A1232370F0
:1055B000842A01D383223270DBB2D2B200F002FD22
:1055C000A846DFF88CB0A14614E098F8004000EB44
:1055D000401104EB81010BEB410505E0288800F048
:1055E0001FFD641CE4B2AD1C30788442F6D93878D3
:1055F000401C3870387899F800108842E5D90121AC
:1056000088F80010397086F800A089F800A0BDE87D
:10561000F09F094A10B5117839B1002438B139B179
:1056200000201070FFF7AAFF03E00124F6E7012134
:105630001170204610BD000030030020310300200F
:105640002F0300202E0300202D0300202C03002018
:10565000583E012010B5002925D0082A0BD0FC2384
:10566000102A21D0122A3AD0182A48D3020C0A70E4
:10567000020A4A7041E000F0E003E022DC0802EA9E
:10568000C00244EA53141C43D30843EA5213800770
:105690001343000E0C704B7040EA9002030943EA7A
:1056A000901002438A7010BDF82202EA102203EA29
:1056B000D003C0060A70000E4B708870824205D17C
:1056C00003F0F8039A4204D14A7002E043EA9313CC
:1056D0004B7042EA52120A7040EA50100DE003EAA1
:1056E000902203EA101342EA921280060A70000E1A
:1056F00043EA93124A7040EA9010887010BD00206F
:1057000008704870F9E708B50A466946FFF7A2FF36
:10571000684600F0B2FC08BDF0B503460846002A12
:1057200029D0FF2A28D003F47844C2F1FF01544362
:1057300000F4784505FB0145FF24B5FBF4F505F4BD
:10574000784503F4FC6616FB02F600F4FC6717FBD1
:105750000166B6FBF4F606F4FC66354303F01F035E
:1057600013FB02F200F01F0010FB0120B0FBF4F06D
:1057700000F01F002843F0BD1846F0BD2DE9F04FA2
:10578000634E0025099C3570832800D98320A12908
:1057900000D9A1218B4200D20B46A12B00D9A12315
:1057A000824200D20246832A00D98322594EDFF872
:1057B00068918446377899F80050AF4204D286F851
:1057C00000C089F800C007E0AC4502D289F80000AB
:1057D00002E0BC4500D93070504FDFF844C197F863
:1057E00000809CF80050C246A84503D239708CF85E
:1057F000001007E0A94202D28CF8001002E05145E7
:1058000000D93970B246367899F80050B346AE42A6
:1058100004D28AF8002089F800200AE01646AA423D
:1058200002D289F8002004E0B0465A4501D98AF82E
:1058300000803D789CF80060B54203D23B708CF844
:10584000003009E09846B34202D28CF8003003E001
:105850004646AB4200D93E70DFF8C8E0DFF8C8909A
:10586000DFF8C8A01CB1A4F57F45FF3D1ED114B1DF
:10587000B9F8006001E0BAF800600D46774611E023
:1058800005EB451100EB810107EB4104111AC9B288
:105890005FEA010CA1F1010124F8026BC9B2F7D152
:1058A0006D1CEDB29D42EBD9BDE8F08F0E46DFF8DE
:1058B00080B029E0F10702D04FEA142C01E004F097
:1058C000FF0C00F007011BF8015006EB461100EB3E
:1058D00081070EEB4707014612E01CEA050F02D0D4
:1058E000B9F8008001E0BAF8008027F8028B6D0853
:1058F00004D14D1C05F007081BF80850491CC9B21B
:105900009142EAD9761CF6B29E42D3D9CCE7000088
:10591000310300202D0300202C0300202F03002042
:105920002E030020583E01203403002036030020BF
:10593000B4A200082DE9F84F474DDDE90A8B002499
:105940002C70832800D98320A12900D9A1218B4262
:1059500000D20B46A12B00D9A123824200D20246DD
:10596000832A00D983223D4FDFF8F4C006463C78F5
:105970009CF80050AC4203D23E708CF8006007E007
:10598000AE4202D28CF8000002E0A64200D9387084
:10599000DFF8D090344E99F800503478AA46A542EA
:1059A00003D289F80010317007E0A14201D23170B2
:1059B00003E0514501D989F800103D789CF800407A
:1059C000AA46A54203D23A708CF8002007E0A24212
:1059D00002D28CF8002002E0524500D93A7099F8C2
:1059E00000403578AC4203D289F80030337009E0CA
:1059F0009C46AB4201D2337004E06546A34201D914
:105A000089F800505C1A444507DBA3EB080404F056
:105A1000FF09164F1DE0494505D3CDF800B0FFF74B
:105A2000ADFEBDE8F88F01EB411400EB840408EBF8
:105A3000481504EB8506054607E037F816C027F839
:105A400014C0761C641C6D1CEDB29542F5D9491C3E
:105A5000C9B29942DFD9E4E7310300202D030020C9
:105A60002C0300202F0300202E030020583E01208D
:105A7000F0B46C4C6C4D844627782E78B74204D233
:105A800084F800C085F800C006E0B44501D2287053
:105A900002E0BC4500D9207026782F78BE4202D2A1
:105AA00022702A7006E0BA4201D22A7002E0B242A5
:105AB00000D922705D4E5E4F34783D78AC4202D200
:105AC0003170397008E08C46A94201D2397003E088
:105AD0006546A14200D9357001EB411100EB81010F
