:020000040800F2
:1000000098780120ED1C00080B1D0008A93100089C
:100010000F1D0008111D0008131D0008000000003E
:10002000000000000000000000000000151D000896
:100030002F1D00080000000091310008331D00084A
:10004000351D0008351D0008351D0008351D000848
:10005000351D0008351D0008351D0008351D000838
:10006000351D0008351D0008351D0008351D000828
:10007000351D0008351D0008351D0008351D000818
:10008000351D0008351D0008351D0008FB38000827
:1000900045380008351D0008351D0008351D0008CD
:1000A000351D000861550008351D0008351D000884
:1000B000351D0008351D0008351D0008351D0008D8
:1000C000351D0008351D0008351D0008351D0008C8
:1000D000351D0008351D0008351D0008351D0008B8
:1000E000351D0008351D0008351D0008351D0008A8
:1000F000351D0008351D0008351D0008351D000898
:10010000351D0008351D0008351D0008351D000887
:10011000351D0008351D0008351D0008351D000877
:10012000351D0008351D0008351D0008351D000867
:10013000351D0008351D0008351D0008351D000857
:10014000351D0008351D0008351D0008351D000847
:10015000351D0008351D0008351D0008351D000837
:10016000351D0008351D0008351D0008351D000827
:10017000351D0008351D0008351D0008351D000817
:10018000351D0008351D000800F002F800F0B2F837
:100190000AA090E8000C82448344AAF10107DA45E2
:1001A00001D100F0A7F8AFF2090EBAE80F0013F082
:1001B000010F18BFFB1A43F001031847F4C70000F2
:1001C00024C800000A444FF0000C10F8013B13F063
:1001D000070408BF10F8014B1D1108BF10F8015BA0
:1001E000641E05D010F8016B641E01F8016BF9D193
:1001F00013F0080F1EBF10F8014BAD1C0C1B09D1EA
:100200006D1E58BF01F801CBFAD505E014F8016B5B
:1002100001F8016B6D1EF9D59142D6D370470000ED
:100220000023002400250026103A28BF78C1FBD8FF
:10023000520728BF30C148BF0B6070476E2908F0D5
:100240008980702908F0D98066290AF074876529A9
:100250000AF0718767290AF06E876129AFF3008081
:1002600003681B0A28BF41F08001692908F0368025
:10027000642908F03380752908F030806F2908F070
:10028000D785782908F0A580E92908F07185E42947
:1002900008F06E85F52908F06B85EF2908F0D48504
:1002A000F82908F0A4800368DB0928BF41F0800129
:1002B000632908F0F284732908F0F784E32908F031
:1002C000D586F32908F0DA86002070471FB50AF0BA
:1002D00028FF08F02BFE0400002000210AF00EFA8F
:1002E000401C6060002000210AF0F2F9E0601FBDB0
:1002F00010B510BD09F012F91146FFF7E7FF01F044
:1003000087F909F039F903B4FFF7F2FF03BC09F0EC
:1003100079F900002DE9F04FF8484FF080635C0058
:10032000B0F80AC05D011E131F01F548F549F64AF1
:100330004FF003094FF0010A4FF4006E4FF4806B49
:10034000BCF10F0F55D2DFE80CF0080808080F16B3
:100350001C222A2F343A40444C00036004608D6113
:100360008E614FF47A7017E0036004608D618E61D6
:100370004FF4967010E0036004608D618E6164201C
:100380000AE0036004608D618E611E2004E003605A
:1003900004608D618E610A201080BDE8F08F0360DB
:1003A00004608D618E6121E0036004608D618E6167
:1003B00014E0036004604FF40040886115E00360BE
:1003C00004604FF40040886107E00360C0F800E07B
:1003D0000AE00360C0F800E08D618F61A2F800A020
:1003E000DBE7C0F800B004608D618F61A2F8009077
:1003F000D3E7C0F800B00460EEE77047BF4A01469B
:100400000120536A994201DA02207047126A914230
:10041000FBDD03207047BD49498980290DD0B74ACB
:10042000BB49528901EB820191ED000A00EE900A6E
:10043000F8EEE00A20EE200A70479FEDB60AF5E7D5
:1004400070B5AE4E2DED028BB06A0AF0DAFB41ECCE
:10045000100B53EC102B9FEDB00B51EC100B0AF06E
:1004600049FA0AF06DF908EE100A0024AC4D14E0C8
:1004700000EE104AB8EE400A28EE000A10EE100A0C
:100480000AF0DEFD41EC100B09F096FC51EC100B6C
:100490000AF056F945F82400641CB06A8442E7D398
:1004A000BDEC028B70BD30B5944D0024E86D410564
:1004B00004D50124010503D4052407E0010505D571
:1004C00044F00104400501D444F00804686BFFF7D0
:1004D000A2FFD5ED0E0AB4EEE00AF1EE10FA01DD4E
:1004E00044F0020489484089802801D144F0020484
:1004F00095F85C00400601D544F01004686BFFF7E6
:100500007DFF022802D0032803D004E044F0200439
:1005100001E044F04004E86DC10401D544F48034A6
:10052000800401D544F40034286E810601D544F4DA
:100530008024400601D544F40024204630BD014605
:1005400078A002F087FE02F0E4FEFCE77B48016839
:1005500041F00101016079481030016841F000511B
:1005600001607748016841F440710160C16821F47D
:100570004071C160734901200860704771492031A2
:10058000086070470FB4FEB50022BDF82000CDE929
:1005900000026DA109AD0291812812D1DDE9094166
:1005A0006A4E00920835306BA04212D0B4F5004F6D
:1005B00006D08120CDE90004029165A002F04AFE38
:1005C0003463BDF82000A0F50061023901D128682C
:1005D0000190654A6946002000F029F8012802D1FF
:1005E000614802F00EF8FEBC5DF814FB474910B5F7
:1005F0005E48486040220021444802F02CFD48F249
:10060000D044012804D05AA221468120FFF7BAFF26
:100610000123402200213D4802F0E6FC002805D0DD
:100620002146BDE8104054A28120ABE710BD2DE962
:10063000F74FDFF8C8901446524D99F8062000266F
:1006400082B0AD5C012D15D1D9F81050022D11D119
:10065000602A0FD818B1034630F8061B8046A1F572
:10066000C060A23802D040F2A16115E0602089F894
:10067000060011E0444DB5F900200AB191B22E8078
:1006800020B1034630F8061B804605E0039818B1F8
:1006900000880023984681B2E6700122227130461C
:1006A0005022B2466271A51D002640F2316CC4F89A
:1006B0000002164FA1F231604FF0060E4FF0810B91
:1006C000614572D072DC40F2066CA1F206604FF018
:1006D000280261456BD07ADC65296AD056DC122984
:1006E00068D006DC02296ED005296DD011296CD1A5
:1006F00020E114296AD01529F9D1FDE3000000207A
:100700001804024000100240A0050020A070012043
:100710003CB100085CFDA038A7E8482EFF21194035
:10072000082B00200D0A45786974207769746820C9
:100730006572726F723A20257300000030380240F3
:10074000000002400074004000000000E070012042
:100750000D0A415054206E6F746966696361746953
:100760006F6E3A20257300008837002008010100D1
:1007700045455772697465004545566572696679E5
:1007800000000000447101203003002040F22322C9
:10079000A1F22320914271D00DDC81296FD010F19C
:1007A00010016DD00129A2D1F4E38AE334E0C4E161
:1007B0000DE037E1CDE0B0F5787F76D0A0F5407060
:1007C000E13894D195E1CAE07AE0AAE0FCE3202187
:1007D0004FF67F77132869D00EDC0C2867D006DC33
:1007E00001287DD003287CD00A2885D1DAE10D28A4
:1007F00078D01228D7D124E2202874D007DC14281E
:1008000072D0FE4A1B2870D01C28CCD156E2212879
:100810006CD02A28C7D1E1E280224FF00A0C56287A
:1008200065D01DDC0F287BD00BDCA0F102000C286A
:1008300077D2DFE800F0F6F57676F476F376F2F12B
:1008400076F033286ED006DC10286CD024286BD0CC
:100850002528A8D1FEE3352867D05528A3D193E0F9
:100860006421702871D011DC5C286FD009DC572816
:100870006DD059286CD05A2895D1ECE356E0EBE3C3
:10088000EBE35D287AD06F288DD1E7E30723B0F53D
:10089000DC7F74D00CDC712872D0B0F5DB7F70D0B7
:1008A000A0F58070B7388CD1C2E0E1E0EAE188E1E0
:1008B000B0F5DD7F6FD0A0F58070BB3895D1F0E347
:1008C0005421A4F800E0A1700A4684F804B0CC4991
:1008D000284607F0EFFE386845F8420B312007E064
:1008E0003EE156E17AE15EE241E20FE24CE2C4E32E
:1008F00005F8170901262876342068763220A87674
:100900003020E876372028774D2068776120A87757
:100910007220E877BB4885F820A00221C163F6E386
:10092000F6E323E238E0F4E3F4E330E0B5484021B5
:1009300081621BE2B348016C41F010010164322175
:10094000C9F81410C0F82CA010E2FDE3FDE322E387
:10095000FCE3AC48016C21F01001016406E2A948F7
:100960005146C0F83CA0026C22F0100202640398C9
:100970000028DED002202080A170DCE0E7E369E0FF
:10098000E6E38FE30126C2E36FF004008BE332203D
:10099000C9F81400EAE18AE399F807006521401CD0
:1009A00089F80700217084F801E01C21A17084F807
:1009B00004B0B9F86C0000F500402880B9F8700068
:1009C00000F500406880B9F848004000A880D9F8D8
:1009D00068301846FFF71FFD8848203880ED000A70
:1009E0000178A9714178E97181782972C0786872BB
:1009F0006B81B9F80A00A8810120E881FFF753FD57
:100A00002861B9F81C00A882B9F82C00E882B9F86E
:100A100030002883B6E7F9E2A2E296E2D5E201E3EC
:100A2000AAE28DE266212170504684F801A0A1E27D
:100A3000B8F8000064225043FF22B0FBF2F0C9F87E
:100A40005800642801D9C9F85810D9F8580004F0A2
:100A5000C5FA8BE1EA22227063700220A07084F84C
:100A600004B0D9F85800C0EB0020B0FBF1F08FE2E1
:100A700089F800A0012589F805509A784FF6FF31D2
:100A80004FF2FF70062A7DD2DFE802F07C270A03CE
:100A9000131DD9F85C0040F0010040F4806017E0BD
:100AA000D9F85C2042F001020A400240C9F85C20FB
:100AB0005CE1D9F85C1041F0010141F48061014032
:100AC000C9F85C1052E1D9F85C0040F00100084020
:100AD00040F40060C9F85C0048E1D9F85C204FF6AA
:100AE000FE731A400A400240C9F85C2089F80050A1
:100AF0003CE10521217084F801E0D9F85C00C107D0
:100B000016D010F4406F01D0042100E0022142050C
:100B100004D5000509D441F400700AE0020504D5AB
:100B2000400502D441F4407003E041F4807000E0DD
:100B30000120A070010AE17024E7304898F8001005
:100B40002038017098F80110417098F802108170F7
:100B500098F80310C17090ED000A89ED0E0A05E1C6
:100B60000820207084F801E00420A070234884F855
:100B700004B099ED0E0A203880ED000A0178297042
:100B8000417800E0FCE369708178A970C078E87072
:100B9000F8E6B8F80000C9F83C00B8F80200C9F857
:100BA0004000E3E01121217084F801E00420A070EE
:100BB00084F804B0B9F83C002880B9F84000688097
:100BC000E0E6D9F83C00A0F50040C9F86C00D9F87F
:100BD0004000A0F50040C9F87000C7E01420207064
:100BE00084F801E00E21A17084F804B0B9F86C001B
:100BF00000F500402880B9F8700005E0840000206E
:100C0000CCB20008E070012000F500406880D9F8FF
:100C100068301846FFF7FFFBFB4880ED000A0178BB
:100C20002971417869718178A971C078E8712B8147
:100C3000B9F80A006881D9F83400FFF7DFFBA88112
:100C4000A0E6B8F804004FF44871884201D908467C
:100C500002E0502800D25020C9F82800FFF7F0FB2E
:100C6000B8F802004008C9F84400B8F800000328AA
:100C7000D9F8600001D0384001E040F08000C9F8A8
:100C80006000E7E3217084F801E00C20A07084F894
:100C900004B099F86000000601D5032000E00120AF
:100CA0002880B9F8440040006880B9F82800A8807E
:100CB000A5F806A0A5F808A001203FE12323237092
:100CC00084F801E0A17084F804B01088288090882E
:100CD00068801089A8809089E880108A2881908A8D
:100CE0006881108BA881908BE881108C2882908C71
:100CF0006882108DA882908DE882108E2883908E55
:100D00006883108FA883908FE8833BE6B8F80000D3
:100D10001060B8F802005060B8F804009060B8F8AD
:100D20000600D060B8F808001061B8F80A005061F9
:100D3000B8F80C009061B8F80E00D061B8F8100057
:100D40001062B8F812005062B8F814009062B8F857
:100D50001600D062B8F818001063B8F81A00506393
:100D6000B8F81C009063B8F81E00D06372E3D9F89D
:100D700060003840C9F860009878D97800EB01200D
:100D80004008C9F8440065E3227084F801E084F863
:100D900002E084F804B002202880B9F82C006880B2
:100DA000B9F83000E5E1B8F80200002802DAD9F815
:100DB00028100844D9F82810884203DA002801DBFB
:100DC000C9F82C00B8F80400002800DA084488426A
:100DD000CCDA0028CADBC9F830003BE3B8F80220BF
:100DE000B8F80410B8F80600C9F8180098F8000020
:100DF0004FF6FF53012808D04FF6BF74022819D0D0
:100E000003281CD004280CD104E0D9F85C0040F081
:100E1000400012E0D9F85C0040F0400012E0C9F850
:100E20005C0098F8080001280FD0022812D003288F
:100E300017D134E0D9F85C0020401840EFE7D9F82A
:100E40005C00204040F40070E9E7D9F85C0040F015
:100E5000800004E0D9F85C00384040F48070C9F8A4
:100E60005C00D0034FF47A7200F2262090FBF2F07F
:100E7000C9F82000C80300F2262090FBF2F0C9F860
:100E80002400B9F85C008005A7D598F80A00B9F8E5
:100E90000A10A9F80A000F2808D90F2009E0D9F88C
:100EA0005C004FF6FF6338401840D8E7032802D2B1
:100EB0000320A9F80A0080B281428ED0FFF72AFAF7
:100EC000C8E23220207084F801E00C20A07084F881
:100ED00004B0D9F820004FF47A71484300F58040FF
:100EE000C0136880D9F82400484300F58040C0133F
:100EF000A880B9F8180000E01DE2E880D9F85C008D
:100F000041064FEA805005D5002801DA042006E0AA
:100F1000012004E0002801DA032000E002202880FC
:100F2000D9F85C00010601D5012004E0C00501D517
:100F3000022000E00320288199F80A00688121E559
:100F4000B8F80200C9F81C0084E29878012801D0A2
:100F50007A817FE278898028B2D1A7F80AA079E265
:100F60003D21217084F801E0B889802801D0032058
:100F700000E00120A07005E53521217084F801E032
:100F80000421A17084F804B0B9F81C006880022024
:100F90002880F7E40FE18921217084F801E084F8CA
:100FA00002C084F804B0D9F868301846FFF733FA65
:100FB000154880ED000A01782970417869708178C0
:100FC000A970C078E87018E0B1E13A21217084F886
:100FD00001E084F802C084F804B0D9F868301846FB
:100FE000FFF719FA084880ED000A0178297085F8A2
:100FF00001A04078A87085F803A0AB80B9F80A007A
:10100000E88001202881BDE4640000203F21217098
:1010100084F801E084F802C084F804B0FFF743FAD2
:101020002860AFE43821217084F801E01420A0701A
:1010300084F804B0FB48009900EB810090ED000AB1
:10104000F848103880ED000A0178297041786970FD
:10105000817804E052E1D5E0BBE08CE07CE1A9704E
:10106000C078E8700021504628742873491C287203
:10107000C9B228710429F7D384E4EA4898F800102B
:101080001038017098F80110417098F802108170C2
:1010900098F80310C17090ED000A103080ED000A3E
:1010A000D8E138E00420B887FFF7A0FAD2E198F839
:1010B000060000F00700012803D07889802802D0BC
:1010C00003E07A8101E0A7F80AA098F80600C0F3CF
:1010D0000210012803D0B889802802D003E0BA8129
:1010E00001E0A7F80CA0B8F80600C00502D5012061
:1010F000B88401E0A7F824A098F8040000F00300E9
:10110000788398F80400C0F30110B883A2E198E155
:10111000BDE0CEE0E1E0ED21217063700820A07019
:1011200084F804B00220288001206880A5F806A079
:10113000B889802801D11020E8807889802809D1D9
:10114000E88840F0010004E01BE170E053E081E03A
:101150003CE1E880B88C012803D1E88840F4807035
:10116000E880B87E397F00F0030001F0030140EA17
:101170000110A88006E4AC4C9978206C61F38610CD
:1011800020649978890702D540F0800001E020F0C2
:101190008000206479890A2903D1C0F3801001F00E
:1011A00090F9B8890A2805D194F84000C0F3C0101E
:1011B00001F09CF94EE19C4840F215212180B0F8E5
:1011C00040000221C0F3801201EA90101118A170B2
:1011D00020E4A4F800B04422A27084F804B0A5F87A
:1011E00000A0039891A18088688003988268281DD8
:1011F00007F00EF80EE4B8F802003881B8F80000E5
:10120000788427E140F28C6121801020A07084F85E
:1012100004B038896880788C28800020514605EB1E
:101220004002401CC0B291800628F8D384E4B8F88C
:1012300000007881B8F80200F881B8F804007882DC
:10124000B8F80600B881B8F808003882B8F80A0083
:10125000B882FFE040F28F6121801420A07084F8F2
:1012600004B078892880F8896880A5F804A0B88936
:10127000E880388A28815146A5F80AA0002005EBAD
:101280004002401CC0B291810428F8D354E49878FD
:10129000012801D0022806D1D978022904D007EB11
:1012A0004000A0F814A0D5E007EB400001218182A6
:1012B000D0E09878012801D002281ED140F2426186
:1012C00021809978A170987807EB4000808A10B14E
:1012D0000220E07030E40120FBE79878012801D07B
:1012E00002280AD107EB8000B8F802104162997811
:1012F000B8F8040007EB8101C862ABE098780128D8
:1013000001D0022816D140F25761218084F802E012
:1013100084F804B098782880987807EB8000808C57
:101320006880987807EB8000808DA88004E4D8F866
:10133000000038608EE016212180A27084F804B08D
:10134000386828600120514605EB8002401CC0B27D
:1013500011600A28F8D31BE4987805287AD1D87848
:10136000052877D1012089F8000089F8010089F863
:1013700002A089F803A089F8050089F8060069E051
:101380005EE040F2A1602080A17084F804B099F87A
:101390000610294AC1F160002880B9F80A00688067
:1013A000012000EB401303EB80132E181344401C64
:1013B0005B5CC0B2F3706028F3D9204A02F801A048
:1013C000491C89F80610C9F810A039E489F800A072
:1013D00089F801A089F802A089F803A0012089F802
:1013E000050089F80600D9F83C00A0F50040C9F8CE
:1013F0006C00D9F84000A0F50040C9F87000FFF774
:101400001FF85020C9F82800D9F85C00D9F86010FE
:1014100040F0010041F4805140F44C60C9E91701EB
:101420004CE5000074000020E0700120252D3633CB
:101430002E36337300000000440600204471012062
:1014400046B12079000602D5A078801D00E0062074
:10145000C4F8000205B03046BDE8F08FFE48006DCC
:10146000704770B5FC4C0426FC4DB4F908100529F2
:1014700048D2DFE801F003091E3B4A0010B1286999
:1014800040073FD401202FE0F5A001F0E3FEF9482A
:101490008687FFF7ABF801F0E2FAA08102202081F5
:1014A000F548202101600803F44908608001A86123
:1014B00028E040B12869400705D500202081F0A030
:1014C00001F0C8FE1EE001F0CAFAA18901F0CBFAD2
:1014D000B0F5FA6F16D90220FFF754F8EB49086C03
:1014E00020F016000864032020810BE0002003F0A8
:1014F00075FD01F0B4FAA18901F0B5FAB0F57A6F83
:1015000000D92681B4F9080070BD002003F066FD03
:1015100040F6B83001F051FB4FF08040018821F0D7
:1015200001010180DA48816A21F001018162816A4A
:10153000C907FCD1816D21F001018165816DC90769
:10154000FCD1D448016821F0010101600168C9079C
:10155000FCD1D0484830016821F0010101600168E8
:10156000C907FCD1CB487830016821F00101016046
:101570000168C907FCD1C848016821F480010160F5
:10158000016821F40011016072B6C348283801686F
:1015900021F0F0010160016841F0F0010160016893
:1015A00021F003010160016841F00101016001685F
:1015B000C1F381010129FAD1B7483038016821F01F
:1015C0008071016028698007FCD528694007F9D53A
:1015D000BFF34F8FB1480168B14A01F4E061114394
:1015E0000160BFF34F8FFEE770B50D4601004FF06D
:1015F00000000CD1002D0AD0012405EA04012029A5
:1016000002D1A8A001F026FE6400F6D1012070BD31
:1016100009F087FD00F0A8FB97482021016008032E
:10162000964908608D4F8001B861DFF8A0820125DE
:10163000C8F800500221C8F8001038698007FCD5AE
:1016400001F0D0F9FEF782FFA14940F6FF70086073
:10165000642001F0BEFA01F009FA01F028FA002036
:1016600001F084FB012001F0CEFA03F055FC01F0FB
:10167000C5F800F0F3FF01F025FF03F0C5FB01F012
:101680006FFE62B603F0DAFFFEF7DAFE724CE06D31
:10169000216E40F0010041F4805140F44C60C4E9F7
:1016A0001701FEF737FE642001F087FA89A001F0E8
:1016B000D1FD92A001F0CEFD86A001F0CBFD944EAD
:1016C00094A0D6F80E1001F0C5FD9FED980B99A0DF
:1016D00053EC102B01F0BEFD7C48083800688004F4
:1016E00001D59BA100E09DA19FA001F0B3FDA249FF
:1016F000AB460D6005F0D5FD002005F04CFE05F071
:10170000D1FC9E4804F078F94FF4207005F00CFEEF
:10171000D6F80E209AA14FF4FA6003F031FADFF800
:101720006C9100234022D9F84010524821F010015A
:10173000C9F84010194601F057FC4E4E97493068E1
:1017400090FBF1F0392801D0954931604B4D4FF4B1
:10175000003028608301BB61010147480160C1146A
:10176000B9610115B9614115B9618115B961CA0144
:101770000260C8F80010C8F800308905016000F068
:10178000F3FEA914296000F0D8FE4FF08050B86134
:10179000C013B861384D6FF00402083D334600E0D5
:1017A0009A872968AA46286841F3C01140F380103F
:1017B000401C491C0142F3D1B08F4FF000080428AF
:1017C00020D0A6F80AB0A6F80EB0A6F80CB0A6F87D
:1017D00010B04B213181A165A6F82480A6F81E80A7
:1017E000A6F82080A6F81A80A6F81C80A6F8168015
:1017F0005A463046A6F8188072846421416301631A
:10180000C162B162FEF74FFE6065664800F0BCFE43
:10181000902802D164A001F01DFD624DD5F80002B0
:1018200001280CD1614A00212846FEF700FF01285B
:1018300002D15E4800F0E5FE0220C5F8000200F08B
:10184000F1FE01F0DAF90028DCD002F0B1F902F083
:1018500035F9708B0028ABE000000020001002403A
:101860000D0A506F776572696E6720646F776E2E10
:101870002E2E0000A0700120180C02401804024017
:1018800063616E63656C6C65640D0A00E070012035
:101890000060024040640240303802400CED00E03D
:1018A0000400FA050D0A415054206E6F7469666990
:1018B000636174696F6E3A206A6F79737469636BE0
:1018C0002073657474696E67730000001808024025
:1018D000207400400D0A2D2D2D2D2D2D2D2D2D2D5B
:1018E0002D2D2D2D2D2D2D2D2D2D2D2D2D2D2D2D28
:1018F0002D2D2D2D2D2D2D2D000000000D0A4B4ED0
:1019000041094E616E6F20747261636B00000000CC
:10191000CCB200080D0A0A4669726D7761726520C3
:101920007265763A09253036580000000000000044
:10193000000065400D0A53797374656D20636C6F08
:10194000636B3A09252E3266204D487A000000006C
:101950006F6E207468652068756200007374616E34
:1019600064616C6F6E6500000D0A4D6F64653A0925
:101970000925730D0A0000002C06002028C200086B
:1019800054686F726C616273204B4E41200A53772A
:1019900052657620253036580000000040420F0086
:1019A00040C06503EC0000202100000088370020C3
:1019B0007ED04FF00060B8614010B861B08B002855
:1019C0007BD04FF00070B8614010B86120690228E8
:1019D00001D2401C206103F0F7FAC9F80400D9F8DD
:1019E00018104A461E2902D000EB40005060D9F87A
:1019F000040008B164202071DAF800005246400665
:101A000000D4E9B32078012800D00020D9F81010C4
:101A1000002970D000210840116841F3C011491C11
:101A200008422CD084F8008084F8018084F8028079
:101A300084F8038084F805B06021A54AA17140F2C2
:101A4000A1611180A349454681F860B0E06BA0F523
:101A50000040E066206CA0F500402067FEF7F0FC37
:101A60005020A062E06D216E40F0010041F48051F1
:101A700040F44C60C4E91701FEF74CFC256101E01D
:101A800020E015E0DAF8000040F3C010401CC9F86F
:101A900010004D46D9F8100002F034F96861296948
:101AA00051B3A96916293FD0172941D043E004E07A
:101AB0004FF40060B86140107FE74FF40070B861E8
:101AC000401082E784F805B011685846090608D42A
:101AD000E06BA0F50040E066206CA0F500402067B8
:101AE000D7E7217849B12070607084F8028084F8CB
:101AF0000380A071CDE715E01DE0E0890028C8D182
:101B0000754981F80080E06D10F4406F03D04FF20A
:101B1000FF31084001E040F44060E06540F6AC5021
:101B2000E081B6E7012176E76C490988718302E01C
:101B30006A494988B1836A4BEA68696802F025F905
:101B4000A86102F0ADFA3869C0F34000A860FFF761
:101B500088FCE860D5E90601FFF746FD2862012808
:101B600001D1C5F81C80A86A002809DD4107A0F151
:101B70000100A86201D500200DE0B6F908000AE0D6
:101B80002089A8BBA8691E2809D020790028F4D094
:101B9000401E2071642003F021FA208940BBE06DD3
:101BA000C10739D07189802936D0410634D5E16C1E
:101BB00091BBB4F80AC0000601D5012500E002255A
:101BC000606BFEF71BFC022802D0032824D102E040
:101BD0006089401B01E0608928446081022D0BD19F
:101BE000B4F85C00C005608903D540F0010002E054
:101BF0005CE020F00100608180B20F2801D90F2045
:101C000002E0032801D20320608180B2844503D022
:101C1000FEF780FBA069E064216E08060CD56089A0
:101C2000102803D22F4A52F8200001E02D48C06B43
:101C3000A064E08910B139E0606CF9E7E06D42071B
:101C40002BD5C20718D04BF6FF7211404FF6FE722B
:101C50001040C1F30E014205C4E9170102D541F459
:101C600080412166010503D5216E41F400412166C2
:101C70004FF2FF3108400CE04A0402D540F4806086
:101C8000E0650804E06D02D540F40060E06540F0D6
:101C90000100E06540F6AC50E081E06D010705D53C
:101CA00080F04000E06540F6AC50E081F08B012808
:101CB0000AD04FF400300C490860308C012805D060
:101CC0004FF40000B8619DE50220F4E78020F9E7B9
:101CD0003003002044710120A40500205C03002093
:101CE000FC700120840000201804024015481649A9
:101CF000026800608A4203D01448804714480047B5
:101D00001448D0F800D040680047FEE7FEE7FEE741
:101D1000FEE7FEE71EF0040F0CBFEFF30880EFF3C1
:101D20000980806910F8020C01F03ABAFEE7FEE77C
:101D3000FEE7FEE7FEE7000007480849084A094BAE
:101D400070470000F01F0020EFBEADDE7F2F0008BF
:101D5000890100080000FF1F987201209878012077
:101D600098740120987401202DE9F04FFE48016815
:101D700041F001010160016841F002010160016868
:101D800041F004010160016841F00801016001684F
:101D900041F010010160F5484FF400340460F3494C
:101DA0001839086840F004000860086820F008004E
:101DB0000860EE4B103B186860F00C001860EC48AF
:101DC000A2018261026842F480420260026822F449
:101DD00000420260826862F440428260E54E220165
:101DE0003260E44A183A1268E24D42F48062183DCB
:101DF0002A602A6822F400622A60DE4A103A1268D9
:101E0000DC4D62F44062103D2A60D84D62002A60C9
:101E10000A6842F010020A600A6822F020020A6092
:101E20001A6822F030021A600A048261026842F4E1
:101E300080120260026822F400120260826822F4BA
:101E400040128260E2018261056845F480350560D8
:101E5000056825F400350560856825F44035856002
:101E60004FF0006AC0F818A0056845F480050560C9
:101E7000056825F400050560856825F44005856042
:101E80004FF00079C0F81890056845F4802505608A
:101E9000056825F400250560856825F440258560E2
:101EA000B44D183D2D68B34F25F44045183F3D60B3
:101EB000B04D0C3D2D68AF4F25F440450C3F3D60C3
:101EC000AC4D183D2D6825F44057AA4D183D2F60A4
:101ED000A84D0C3D2D68A74F25F440550C3F3D60A3
:101EE0000D6825F0C0050D601D1D2D681F1D25F016
:101EF000C0053D60A04D2D689F4F25F040453D60D9
:101F0000FD6825F04045FD60C7043760994D183DD8
:101F10002D68DFF860C245F08045ACF1180CCCF8B4
:101F20000050DCF8005025F00045CCF80050914DF1
:101F3000103D2D68DFF83CC225F04045ACF1100C97
:101F4000CCF800508D4D2A608C4A183A1268DFF8A0
:101F50002CC242F48032ACF1180CCCF80020DCF832
:101F6000002022F40032CCF80020844A103AD2F843
:101F700000C02CF4403CC2F800C04FF4800BC5F800
:101F800000B0DFF8F8C1ACF1180CDCF800C0DFF8E5
:101F9000EC814CF4805CA8F11808C8F800C0D8F8AF
:101FA00000C02CF4005CC8F800C0D2F800C02CF4CB
:101FB000405CC2F800C0C5F80090D8F800C04CF4EE
:101FC000802CC8F800C0D8F800C02CF4002CC8F849
:101FD00000C0D2F800C02CF4402CC2F800C04FF46E
:101FE000803CC5F800C0C446DCF800C04CF0010CD1
:101FF000C8F800C0D8F800C02CF0020CC8F800C027
:10200000D2F800C02CF0030CC2F800C02C60D8F845
:1020100000C04CF0040CC8F800C0D8F800C02CF088
:10202000080CC8F800C0D2F800C02CF00C0CC2F8A4
:1020300000C04FF4000CC5F800C0C446DCF800C076
:102040004CF4804CC8F800C0D8F800C02CF4004C08
:10205000C8F800C0D2F800C02CF4404CC2F800C050
:102060004FF08049C6F80090DFF808C1ACF1180CB9
:10207000DCF800C0DFF8FC804CF0805CA8F11808A8
:10208000C8F800C0D8F800C02CF0005CC8F800C048
:10209000DFF8E0C0ACF1100CDCF800C0DFF8D48051
:1020A0002CF0405CA8F11008C8F800C0DFF8C8C0E8
:1020B000CCF81840DCF8004044F00404CCF80040B0
:1020C000DCF8004024F00804CCF80040DCF80840BC
:1020D00024F00C04CCF808407C0BCCF81840DCF859
:1020E000004044F01004CCF80040DCF8004024F03C
:1020F0002004CCF80040DCF8084024F03004CCF890
:1021000008402F601D4C183C2468DFF870C044F074
:102110008044ACF1180CCCF80040DCF8004024F00E
:102120000044CCF80040146824F040441460DCF80B
:10213000004024F04054CCF80040141DD4F800C0F6
:102140002CF0405CC4F800C0DFF82CC0DCF800C004
:10215000DFF824802CF0030CC8F800C0D8F80CC0BD
:102160002CF0030C0CE00000303802401804024050
:1021700000100240180C0240000002401808024003
:10218000C8F80CC0DFF8EC83C8F800A0D1F800C094
:102190004CF4800CC1F800C0D1F800C02CF4000C45
:1021A000C1F800C0D3F800C02CF4400CC3F800C044
:1021B0004FF0806CC8F800C0D1F800C04CF4801C0F
:1021C000C1F800C0D1F800C02CF4001CC1F800C058
:1021D000D3F800C02CF4401CC3F800C08761076826
:1021E00047F080470760076827F000470760876867
:1021F00027F040478760C0F81890076847F080577D
:102200000760076827F000570760876827F0405786
:10221000876047048761076847F080670760076841
:1022200027F000670760876827F04067876007042A
:102230008761D0F800C04CF0807CC0F800C0D0F8B6
:1022400000C02CF0007CC0F800C0D0F808C02CF012
:10225000407CC0F808C0C446CCF800700F6847F056
:1022600080770F600F6827F000770F601F6827F0F6
:1022700040771F60076827F00C070760C76827F0E2
:102280000C07C7600F6827F440470F601F1D3F68A9
:1022900003F1040C27F44047CCF80070B64F3F68B8
:1022A000DFF8D4C227F0C007CCF80070276827F009
:1022B000C0072760DFF8C4C24FF40027CCF81870BD
:1022C000DCF8007047F04007CCF80070DCF80070D4
:1022D00027F08007CCF80070DCF8087027F0C00702
:1022E000CCF808704FF480172F60A34D2D68A24FD3
:1022F00045F480753D603D6825F400753D601568C6
:1023000025F4407515604546C5F800B00A6842F4EA
:1023100080520A600A6822F400520A601A6822F4A5
:1023200040521A60026822F030020260C26822F055
:102330003002C260384600683A4620F0C0001060A3
:10234000206820F0C0002060086820F44040086049
:10235000181D0068191D20F44040086061464020A7
:102360008861086840F480500860086820F40050D4
:102370000860886840F440508860081530608048E4
:1023800000687F4940F480100860086820F400105D
:1023900008607B4808300068794920F44010083113
:1023A00008608814306076480068754940F0807095
:1023B0000860086820F00070086071480830006804
:1023C0006F4920F04070083108604FF400503060D1
:1023D0006B4800686A4940F080600860086820F037
:1023E00000600860664808300068654920F0406079
:1023F00008310860C814306061480068604940F4E2
:1024000080000860086820F4000008605C4808301C
:1024100000685B4920F440000831086010460068FD
:10242000114620F040500860206820F08050206065
:10243000206840F000502060BDE8F08F08B14020D7
:1024400001E04FF480004D498861704708B10220D7
:1024500001E04FF4003049498861704749480069FC
:10246000C0F34000704744490120183108604249D8
:10247000086820F0030040F00100086070473E4803
:10248000016821F0030101603B4901201831086017
:10249000BFF35F8F374808380068C0F3C01070473B
:1024A0003548016821F00C010160334902201831E0
:1024B0000860BFF35F8F304810300068C0F3C00081
:1024C00070472D490A6842F004020A602A4A4FF414
:1024D00000331832136008B1082001E04FF40020E7
:1024E0001060086840F040000860704722490A68A0
:1024F00042F001020A60204A4FF480311832116024
:1025000008B1802001E04FF400001A490860194822
:102510001838016841F4804101607047164801682D
:1025200021F00C01016014480221183001600160A3
:10253000BFF35F8F4021016070470F494FF4800067
:102540001831086070470C48016821F003010160F0
:1025500009480121183001600160BFF35F8FBFF3AC
:102560005F8F49060160704703494FF400701831CE
:102570000860704718040240000802400000024052
:10258000000C0240001002402DE9F0410446D0F852
:102590000002012700262F4D022829D00220BDE885
:1025A000F081A8682154401CA860062811D1207928
:1025B000010601D5A17800E00021891D00F07F000F
:1025C000E960502804D16079012801D1FF2900D9A0
:1025D000AE60D5E90201884205D10120AE60032733
:1025E000C4F800020BE0D4F80002012802D106E092
:1025F0004FF6FF7800F0B0F901464045D1D138469A
:10260000CDE710B5134CD0F80022D4E900131944DB
:102610001344636003E010F8013B01F8013B521ED4
:10262000F9D210BD10B50B4C6068002811D000F035
:10263000C6F900280DD0D4E9000100F0A3F906493D
:1026400020688842084601D100F500702060002013
:10265000606010BDF00200208C390020604810B589
:10266000016841F4802101605D48103801685D4ACD
:10267000114301605C48016821F480310160016808
:1026800041F400310160011D0A6822F480720A6081
:1026900055490C310A6822F440320A600A1F136857
:1026A00023F440331360504A2432136823F00F039D
:1026B000DB1D1360036823F480230360036843F485
:1026C00000230360086820F440200860106820F0B0
:1026D000F00040F070001060444940F26D10088036
:1026E0004248002308300380001D03800A1D118822
:1026F00041F400511180018841F0C00101803C4843
:10270000816D21F001018165816DC907FCD1816D69
:1027100021F060618165816D41F000618165816DAD
:1027200041F488618165314C241F0466C365816A68
:1027300021F001018162816AC907FCD1816A21F01F
:1027400060618162816A41F000618162816A41F465
:10275000A06181620463274941638021C1622349EA
:1027600008390B8823F040030B80118841F00C01DD
:102770001180816A41F00101816210BD1C48C06A6C
:102780001D4AC0F180001168884202D14FF6FF70E7
:1027900070471848405C491C11608029F8D100211D
:1027A00011607047124A936D23F001039365936D96
:1027B000DB07FCD15066D1650C480838018821F050
:1027C000400101804FF000609060906D40F001008A
:1027D0009065704705480838008800F04000704751
:1027E0004038024008002000000C02400848004029
:1027F000006002408C3D002000030020724810B5AC
:10280000016841F0100101606F48143801686F4A97
:10281000114301606E48016821F480210160016864
:1028200041F400210160416821F400714160C168F8
:1028300021F44021C160816821F440218160416A16
:1028400021F0F00141F070014162016821F4801132
:102850000160016841F400110160C16821F40011B8
:10286000C160C16841F48011C160416A21F47061A6
:1028700041F4E0614162C1028161016841F080710F
:102880000160016821F000710160816841F04071D0
:102890008160016821F440010160C16821F40001F8
:1028A000C160C16841F48001C1604A4940F2D92049
:1028B000088100230B828B82888940F40050888134
:1028C000888A40F0C00088824348026822F00102F2
:1028D00002600268D207FCD1026822F060620260E6
:1028E000026842F000620260026842F4886202609C
:1028F000384C3948241D08300460001F03603648F6
:102900007838026822F0010202600268D207FCD126
:10291000026822F060620260026842F000620260B7
:10292000026842F4A06202602B4A703A14602A4B9B
:102930002A4A6C3B1A605A15274B743B1A600A8866
:1029400022F040020A808A8942F00C028A810168E2
:1029500041F00101016010BD1F4874380068204A31
:10296000C0F500701168884202D14FF6FF707047C1
:102970001A48405C491C1160B1F5007FF7D1002175
:1029800011607047144A136823F001031360136841
:10299000DB07FCD1104B0C3318600F48001D0160A1
:1029A0000C48018821F0400101800B494FF0006084
:1029B000AC390860106840F00100106070470548AD
:1029C000008800F040007047443802400100400099
:1029D0000000024000100140B86402400C3E00209C
:1029E00004030020FE48016841F400310160FD4904
:1029F000A7220A80FB4A40F2E731121D1160F94A12
:102A000049100C321160F74908390A8842F0010276
:102A10000A80F44910390A8842F060020A80091FCE
:102A20000A8842F001020A80EE4928390A8842F0F9
:102A300001020A80016841F480310160EA482021E6
:102A40000181018941F007010181002101854FF6D3
:102A5000FF71C162018841F0010101807047E248C5
:102A6000406A80B27047401A80B27047DC48001F4D
:102A7000016841F010010160DC48532101854FF6E7
:102A8000FF714162C162018841F008010180018843
:102A900041F00101018070474142D4484162018800
:102AA00041F0010101800188C907FCD17047CC4B7E
:102AB00010B51B1F186840F008001860C84824387B
:102AC000016841F00801016001680907FCD501684F
:102AD00021F008010160C64800210180001F01604B
:102AE000BF4A143A106840F001001060C148046801
:102AF00024F001040460046844F002040460046AE1
:102B000024F00F04A41C0462B94C481E241D20604C
:102B1000B74C5720203C2080B5481038048844F03A
:102B200001040480001F048844F001040480B048BC
:102B30002838048844F001040480186840F002003A
:102B40001860AD480180001F0160106840F002006D
:102B50001060AA48016821F001010160016841F09C
:102B600002010160A5482030016821F00F01891C95
:102B70000160016821F0F00141F0200101609E49EF
:102B800041F26700091D086041109B481430016044
:102B90000068994918310860974947F270000C396C
:102BA0000880081D018841F4807101809248143822
:102BB000018841F00101018010BD00B50246FFF718
:102BC0004EFF0146FFF74BFF401A80B29042F9D307
:102BD00000BD8B4948434FF47A71B0FBF1F0B0F17E
:102BE000807F01D3012070474FF0E0210A6942F055
:102BF00001020A614861002070474FF0E02000693F
:102C000000F480307047F8B57E4B7F4C1D1D38B9FD
:102C10007C48283000680090186820602868009080
:102C20006F48001F016841F08051016077480168DA
:102C300041F4807101606A482C30016841F48031B0
:102C40000160016821F480310160016841F4407144
:102C50000160016841F4004101606A4ACA202432DF
:102C600010605320106067480C30016841F080010B
:102C7000016001684906FCD5624910310E6842F2D4
:102C80000F776FF30E063E440E600E6826F4FE06C4
:102C900046F4C6060E60216819605D492960016826
:102CA00021F08001016001680906FCD4FF21116058
:102CB000016821F020010160F8BD494910B5091FE4
:102CC0000A6842F080520A6050490A6842F48072F1
:102CD0000A6043492C310A6842F480320A600A686B
:102CE00022F480320A600A6840F205131A430A602F
:102CF0000A6842F400420A6028B13F482838018837
:102D000041F0010101803F4ACA2024321060532063
:102D100010603C480C30016841F08001016001689E
:102D20004906FCD5374910310B6842F20F746FF336
:102D30000E0323440B600B6823F4FE0343F480333B
:102D40000B6031492F4B096819601B1D3049196010
:102D5000016821F08001016001680906FCD4FF21AF
:102D60001160016821F02001016010BD294908406F
:102D7000254908607047234BCA2124331960532129
:102D8000196020490C310A6842F080020A600A6822
:102D90005206FCD51F4A10401A4A1060086820F0FD
:102DA00080000860FF201860704730B5154DCA22BA
:102DB00024352A6053222A60124C0834226822F4F7
:102DC00080722260221D136843F0010313601368B0
:102DD000DB07FCD00F4B184040F00040094B1BE0D4
:102DE00044380240284401400040014000100040A7
:102DF000280C00400000024028040040000402406B
:102E0000406F40010028004008030020007000408F
:102E1000024413007F7F3F001C331860C1F30E0093
:102E20001D4940F070600860106820F001001060DB
:102E3000106820F480701060206840F48850206092
:102E4000106820F001001060FF202860134801681E
:102E500041F40031016011480838016841F4003143
:102E600001600E480C30016841F4003101600C49EA
:102E70004015C1F8000130BD07480CB51C3800688A
:102E800000900548443800680090034840380068C6
:102E9000019000980CBD000044280040083C01400F
:102EA00004E000E0484A0020116841F480311160DC
:102EB0004FF47053116800F1010011F4003F01D18B
:102EC0009842F7D11068C0F34040002856D03E48E1
:102ED0004030016841F0805101603C48016841F494
:102EE000804101603A4940F2056008603648083088
:102EF00001680160016841F400410160016841F42A
:102F0000A0510160016821F4F81141F440210160F1
:102F1000016821F07C510160016841F0806101602D
:102F2000016841F060510160016821F04041016099
:102F3000016841F080410160011F264B0B60116860
:102F400041F08071116011688901FCD5016821F0A0
:102F500003010160016841F0020101600168C1F3F1
:102F600081010229FAD118491B4884310860106890
:102F700040F08060106010680001FCD57047174871
:102F800010B5016841F4700101600F48016841F01B
:102F9000010101600C4A0021083211600268104BE7
:102FA0001A400260031D0F4A1A60026822F4802250
:102FB000026005480C300160FFF774FF07494FF0CD
:102FC00000608039086010BD003802400070004089
:102FD000003C02400C5440070040005088ED00E0E7
:102FE000FFFFF6FE103000242DE9F041174604469D
:102FF0000126C81998460D46B0F5006F29D2002069
:1030000000F042FA032000F047FAC5F3072000F071
:1030100043FAE8B200F040FA002511E0002000F089
:103020003BFAB8F1000F06D046B114F8011B8142FB
:1030300004D1012603E004F8010B00E000266D1C1A
:10304000BD42EBD3012000F01FFA16B10020BDE80D
:10305000F0810120FBE72DE9F0478F1888460646EE
:10306000B7F5006F02D30120BDE8F0870C4640E0C1
:1030700004F01F05444500D0ADB9002000F004FA6B
:10308000062000F009FA012000F0FEF9002000F00F
:10309000FBF9022000F000FAC4F3072000F0FCF96D
:1030A000E0B200F0F9F916F8010B00F0F5F91F2D68
:1030B00002D0781EA0421BD10025012000F0E4F9C7
:1030C0004FF47A79002000F0DFF9052000F0E4F9F0
:1030D000002000F0E1F98246012000F0D5F92846F1
:1030E0006D1C484501D90220BEE75FEACA70E9D1EC
:1030F000641CA742BCD8012000F0C6F9B3E7000069
:103100003EB54F21294800F0B9F8002428B12749DD
:103110004F2802DC0C54401CFAE700F0FAF800F0EB
:10312000CEFB88B100216A4603E043181B79535453
:10313000491C037B8B42F8DC11446B464C70027BCC
:1031400001681BA000F086F800F0A2FC214D0100F0
:1031500006D0286820B920A000F07CF80120286063
:1031600012480C380078C00610D523480068C0F318
:10317000C0146868844209D02048B0F91000A04209
:1031800003D100211EA000F065F86C603EBD7047C1
:103190002048016821F0805101601FA000F05AB85A
:1031A000014625A000F056B8FEE770471840002001
:1031B0000D0A43414E2052782066726F6D202564BF
:1031C0002C2025642062797465733A2022257322AD
:1031D0000D0A00000C0300200D0A43414E206572C9
:1031E000726F723A20737461747573203D20307869
:1031F00025582E0D0A00000010040240A070012086
:103200000D0A5472696767657220617420252E3338
:103210006600000004ED00E00D0A466561747572F9
:1032200065206E6F742079657420696D706C656DB2
:10323000656E7465642100000D0A535643206E7557
:103240006D626572202575207761732063616C6CF7
:10325000656400000FB410B53E4C03AA6068B0F579
:10326000E16F00D301BE21680844029904F0BEFF5B
:1032700061680144616010BC5DF814FB2DE9F04702
:10328000344D80460026A8688946374608B9C5F8F7
:103290000C804FF6FF7AFFF771FA044650452DD0A7
:1032A000082C12D00A2C26D00D2C24D0A968494510
:1032B000F1D2214628A0FFF7CDFFE86800F8014BC6
:1032C000E860A868401CA860E5E7A8680028E2D08C
:1032D000082121A0FFF7BEFF20211FA0FFF7BAFFA2
:1032E00008211DA0FFF7B6FFA868401EA860E86887
:1032F000401EE860CFE70126AF60CCE73EB1E8684A
:1033000000F8017BE860A0EB0800BDE8F087002032
:10331000FBE710B50F4C6068002811D0FFF75AFA90
:1033200000280DD0D4E90001FFF73CFA0B492068D2
:103330008842084601D100F5E1602060002060600D
:1033400010BD10B5FFF746FA0028FBD0BDE81040CD
:10335000DFE7000014030020256300006840002020
:1033600078B5544B186840F004001860514810308C
:10337000016841F4004101604F48016821F080710B
:103380000160016841F000710160041D216821F4B1
:103390008051216048490C310A6822F040720A606D
:1033A0000D1F2A6862F040722A60434A2432166870
:1033B00026F4702646F4C0261660066826F48016A9
:1033C0000660066846F400160660266826F48066E5
:1033D00026600C6824F440140C602C6864F44014DB
:1033E0002C60146824F4706444F4C06414600468AD
:1033F00024F480040460046844F400040460086851
:1034000040F480000860086820F40000086010683C
:1034100020F4704040F4C0401060186840F008008C
:10342000186026490420086024481838016841F0D3
:1034300010010160016821F020010160001D016898
:1034400021F0040101601D480C38016821F03001B1
:103450000160001F016861F03001016018480188B7
:1034600021F040010180001F018821F0400101800E
:103470004FF449710180018841F0400101801048FA
:1034800008300088009078BD08B1042001E04FF4B6
:1034900080200A49086070470949091D0A88920777
:1034A000FCD5074A083210800888C007FCD0108875
:1034B000C0B270473038024000080240180C024089
:1034C000043C004018B55A4A106840F001001060F2
:1034D00057481430016841F4805101605548016833
:1034E00021F480410160016841F4004101604168BC
:1034F00021F080014160C16821F44041C1608168D0
:1035000041F440418160016A21F0704141F0A041E5
:103510000162016821F480610160016841F4006189
:103520000160416821F020014160C16821F44061DF
:10353000C16020218161816841F440618160016A3C
:1035400021F4700141F4A00101623B49888820F018
:1035500040008880088820F0400008800720B0FAEA
:1035600080F0C0F12003D800083800F0380040F4A3
:1035700041700880888840F002008880106840F41C
:10358000800010602D48026822F00102026002688B
:10359000D207FCD1294C4FF400627C3C22600268C7
:1035A00022F060620260026842F0C062026002685B
:1035B00042F480620260026842F0400202601E48EB
:1035C0001E4A0C30083210600020121F106008885C
:1035D00040F04000088088890090012018499840F8
:1035E000B1FBF0F018BD7047144A136823F00103D3
:1035F00013601368DB07FCD1104B0C3318600F48C5
:10360000001D01600D49C0147C390860106840F04D
:10361000010010607047094884380068000505D52E
:1036200005480089000601D401207047002070473A
:1036300030380240000002400030014088640240FF
:1036400000BD0105FF4910B5002008604860886092
:103650008C31086048608860FB48016841F00201D5
:103660000160FA48016821F480210160016841F499
:1036700000210160011D0A6822F400720A60F3490A
:103680000C310A6822F440220A600A1F136843F4CE
:1036900040231360ED4A2432136823F0F00343F013
:1036A00090031360036823F480330360036843F4DA
:1036B00000330360086820F440300860106820F090
:1036C0000F0040F009001060DF481030016841F041
:1036D00000710160DC481038016841F00071016040
:1036E00001688901FCD5016821F000710160D849A9
:1036F00001200860D6490320143108602A201521D2
:10370000B0FBF1F2B0FBF1F301FB130008B10120B3
:1037100010BDCF481C300168CE4B19400160521ECD
:10372000C2F30901026841F4BA0111430160132098
:1037300000F0B1F9142000F0AEF9002010BDC4492A
:103740001C310A6822F040420A600A6800F04040DA
:1037500002430A607047BE48016821F00101016020
:103760000168C907FCD1BA48083001684901FCD595
:103770007047F0B5B84C22880D2A01D90120F0BD60
:1037800069B3C100091DB54D286840F001002860EB
:10379000B24E1C3633680120904083433360AF4BF8
:1037A0000C331F6807431F602B1D1F6807431F60F2
:1037B000AB4B03EBC203C3F84016C3F84416A7494A
:1037C00014310B6883430B60316801433160286812
:1037D00020F001002860521C22800020F0BD41052D
:1037E000D1E710B561B3C000001D9C490A6842F0E2
:1037F00001020A60994A1C32136823F00103136026
:10380000964B0C331C6844F001041C600B1D1C68B3
:1038100044F001041C60914B403318601B1D18607C
:103820008E481430036823F001030360106840F0F1
:1038300001001060086820F001000860002010BD41
:103840004005D2E7824B30B50C331868800735D07D
:103850007C4A516802EB0110491C51607F49503984
:103860000C6800F10C0065074FF0000403D44473AA
:103870000D686D0D04E0012545730D68C5F3D10594
:1038800005600968C1F34001817374494C390968C6
:1038900001F00F01017371494839096841606F49AE
:1038A0004439096881605068082800D15460106864
:1038B000401C1060186840F02000186030BD10B542
:1038C000634C1434206820F0020020605D4B1A68BD
:1038D00042B1996803EB0110491C0C30996008292A
:1038E00002D003E0002003E000219960521E1A601C
:1038F000216841F00201216010BDF0B55448083044
:103900000068C00757D0524E1436306820F00100CE
:1039100030604C4D8C352A68002A4CD0A9684F4C39
:1039200005EB0110491C0027803CA9602760D4F8F2
:1039300000C0437E0C30BBB30368DB001B1D4CEAA8
:10394000030CC4F800C0D4F800C0837B03B1022389
:103950004CEA030CC4F800C0DFF800C14368ACF1C6
:10396000780CCCF800300CF1040C8368CCF80030F3
:103970003A4B7C3BD3F800C02CF00F0CC3F800C0CE
:10398000D3F800C0007B00F00F004CEA000CC3F835
:1039900000C0306840F001003060206840F0010055
:1039A0002060082904D004E0FFE703885B05C6E730
:1039B000AF60521E2A60F0BDF0B5254C143421686A
:1039C00021F0010121601F4B00258C331968082963
:1039D00001D3012010E05A6803EB0211521C5A6017
:1039E000C5C80C3181E8C5005868082800D15D6061
:1039F0001868401C18600020216841F00101216016
:103A000015494A68012A06D1144A803A136843F0DE
:103A1000010313604D60F0BD0D4A1432106820F0B0
:103A2000010010600A480830016841F0800101601F
:103A300001680906F8D4016821F001010160044819
:103A400018300FE0784E0020303802400004024069
:103A50000064004000FC80FC24030020006600405D
:103A6000006000400168114B1940016010490020BE
:103A70000860486088600F4901204860C1044FF029
:103A8000E020C0F88012106840F00100106070471C
:103A900009480068704700F01F0201219140400969
:103AA000800000F1E020C0F8001170478CFF00FF9B
:103AB000044F002024030020186400402DE9F04149
:103AC000774C0125608980280FD0FEF736FDB4F9C8
:103AD0000A00744F744E0C280BD2DFE800F00C0C77
:103AE00032100A0A0A0A0A0A0A56FEF717FD6F4838
:103AF0000580BDE8F081BDE8F041FEF7D1BCFEF7DE
:103B0000CFFC3178884200D03D70FEF7C9FC3070A0
:103B1000E089674C674D684E684F01280CD0FEF76E
:103B2000BFFC0028E5D12068A0F50040286030687F
:103B3000A0F500403860DCE7FEF7B2FC0128F2D0C7
:103B4000D7E7FEF7ADFC3178884200D03D70FEF734
:103B5000A7FC3070E0895A4C4FF6FF364FF2FF75E4
:103B6000012803D0FEF79CFC20B907E0FEF798FC83
:103B7000012803D020683040284004E0206840F04D
:103B8000010040F440602060B3E74E48E1890078CE
:103B900001294FEA807002D0002804DB01E00028F0
:103BA00001DA012000E00020BDE8F041FEF789BC09
:103BB0002DE9F0413A4CA089802810D0FEF7D4FCC2
:103BC000B4F90C000126374F374D0C2891D2DFE8AD
:103BD00000F00A0A300E2A2A2A2A2A2A2A54BDE884
:103BE000F041FEF7B0BCBDE8F041FEF748BCFEF77F
:103BF00046FC6978884200D03E70FEF740FC687051
:103C0000208A2B4C2B4F2C4D2C4E01280CD0FEF72C
:103C100036FC002807D12068A0F5004038602868ED
:103C2000A0F50040306064E7FEF729FC0128F2D0DF
:103C30005FE7FEF724FC6978884200D03E70FEF70B
:103C40001EFC6870208A1E4C4FF6FF364FF2FF753F
:103C5000012803D0FEF713FC20B907E0FEF70FFCA4
:103C6000012803D020683040284004E0206840F05C
:103C7000010040F4406020603BE71248218A007850
:103C800001294FEA807002D0002804DB01E00028FF
:103C900001DA012000E00020BDE8F041FEF726BC7B
:103CA000A0700120050000202C030020A0050020AA
:103CB0003C0000206C00002040000020700000202C
:103CC0005C0000205400002030B504460020FF4B6B
:103CD000024603EB02152D68A54202D0521C212A90
:103CE000F7D939B1012909D0022902D103EB021019
:103CF000C06830BD03EB0210406830BD03EB02101A
:103D0000806830BD70B5F14C0546303C0026E16955
:103D10000520062937D2DFE801F0030C36192C2FD5
:103D2000012D30D101202026E061FEF798FE608051
:103D300029E0FEF794FE6188FEF795FEC82822D997
:103D4000012D01D1032015E0002013E0012D04D046
:103D5000E061FEF784FEA08015E0FEF780FE61883A
:103D6000FEF781FEB0F57A7F0DD904201026E061C0
:103D700009E045B9E06106E0FEF771FEA188FEF7B3
:103D800072FEC828E0D8304670BD2DE9FF5FCF4EE7
:103D90008046303E9B46306A0F460025706258B11F
:103DA000202809D0FEF75BFEF188FEF75CFE42F2A8
:103DB0001071884200D935620298012804D1306A16
:103DC000202801D0202030620C2F01DD012000E0EE
:103DD000002017F10C0F01DA012100E00021441A44
:103DE000FEF73DFEF188FEF73EFE962800D2002445
:103DF00058EA040002D0FEF732FEF080002F01DB0B
:103E0000384600E07842642805DDB06A052803DA08
:103E1000401CB06200E0B562012C25D0601C25D0AA
:103E20005FEA886004D50221306AFFF74DFF3062F7
:103E3000A64AD6F820C0A64BDFF898A20121121F8F
:103E4000A548ACF1110C40F2EC794FF0800EBCF1BA
:103E5000100F4CD2DFE80CF06A50E279899CB43A3A
:103E600045CCD7F5F30C4BF20021DDE70121DBE770
:103E700000EE107AB8EEC00ADFED980A20EE200AB4
:103E8000BDEEC00A10EE101AD9B100EE107A028908
:103E9000B8EEC00A20EE200ABDEEC00A10EE101ADD
:103EA000114409B20181002901DA058103E0642986
:103EB00001DD64210181DBF8000040F02001CBF836
:103EC0000010002C13D040F28B60C1E0621C02D0C5
:103ED000012C02D009E0C58200E0C18240F24160BD
:103EE000B6E0621C04D0012C04D0002CF6D1D3E043
:103EF0000583F3E70183F1E7B0F92200784918E080
:103F000001281BD020B1086807E014FB00F001E095
:103F100004EB84100A6810440860B0F5004F10DB11
:103F200047F6FF7000E06F480860B5E0B0F9220086
:103F30006D490228E4D141F68710E6E740F28D2072
:103F4000E3E710F5004FEEDDA6E0621C02D0012C85
:103F500005D00EE0C5834FF2FF72186811E0C183EF
:103F6000186840F40060186004E0621C05D0012C61
:103F700009D024B38AF800108EE0058418684FF643
:103F8000FF321040EFE70184186840F48060EAE7F0
:103F9000601C0AD0012C0BD00CB1A6F80090B2F92D
:103FA0000000002808DA158076E01088401E01E045
:103FB0001088401C1080F0E701286DDD11806BE057
:103FC000601C0AD0012C0BD00CB1A6F80090B2F9FD
:103FD0000200002808DA55805EE05088401E01E0AB
:103FE0005088401C5080F0E7012855DD518053E097
:103FF000611C03D0012C03D06CB94DE045810AE06F
:10400000A0F80AE007E0621C02D0012C02D043E0D5
:10401000858400E08184A6F800903DE033488AF86A
:1040200000100170324805703248017018684FF274
:10403000FF3108401860304885612CE029E00EE02F
:10404000FFE7611C06D0012C06D00CB340F28E6055
:10405000308021E08581F9E7A0F80CE0F6E7611CEB
:104060000CD0012C0DD014B140F28B613180B0F92D
:104070002210022909DD022141840DE0418C491EF4
:1040800001E0418C491C4184EEE7002904DA4584B3
:1040900002E0029800B93562306A04B0BDE8F09FD2
:1040A0002DE9F04F0B4E07462DED028BA1B0307875
:1040B0004FF6FF7A4FF00009012829D1002001F0C6
:1040C000F1FA7E2354461A46212117E060030020AE
:1040D0005C00002005000020A0700120CDCC4C3DEC
:1040E0006C0000200180FFFF700000200100002014
:1040F0000200002000000020E07001200846CDF8FA
:1041000000A003F015F8204601F0CCFA86F80090E4
:10411000D0489FEDD18AD14DDFF84483DFF844B316
:10412000A0F12C04212F79D2DFE807F011B6BDBF32
:10413000E3C1C3C5C7C9CBCDCFF9FBFDF3F2F1D1C4
:10414000F0EFEEEDECEBEAE9E8E7E6E5E400698B99
:104150000180A98B4180C448007868B19BF80000B9
:10416000002844D0C1A202A8A16904F051F8C4A15A
:1041700016A804F04DF880E3B8F8000010F4406F82
:1041800033D0C4480078800701D5C3A200E0C7A29D
:1041900002A8A16904F03CF8C948006800F5004095
:1041A00000EE100AF8EEC00A80EE880A10EE100A3F
:1041B00006F046FF0646C3480F46006800F500407B
:1041C00000EE100AF8EEC00A80EE880A10EE100A1F
:1041D00006F036FF41EC100BBBA153EC102B16A8D8
:1041E000CDE9006704F014F847E3BCA2D0E7C0A211
:1041F00002A8A16904F00CF8C24890ED000AF8EE9C
:10420000C00A9FEDC11A80EE810A10EE100A06F076
:1042100017FF41EC100B53EC102B00E03DE3BBA16A
:1042200016A803F0F5FF28E30CA8A16903F0F0FF3E
:104230004FF6FF7001F036FA0021084601F02EFC1F
:1042400002A802F014FF0121002001F027FC0CA8B5
:1042500002F00DFF7F2320211A46084602F02EF8B7
:104260007F48AF4E4FF0020A008810F4406F08D02C
:10427000AC4840F2AA210088B0FBF1F0308002285F
:1042800001D2A6F800A078480078002870D0A6488F
:10429000007800286DD0FDE3A4A202A8A16903F074
:1042A000B7FFA7A2C0E7ABA23EE0AFA23CE0B3A23B
:1042B0003AE0B7A238E0BBA236E0BFA234E0C3A226
:1042C00032E0C7A230E0CBA22EE0CFA22CE0D3494F
:1042D00001203070644A08708BF800901070D8F894
:1042E00000004FF2FF331840C8F80000CC48C0F877
:1042F000189012E0CAE2C2E2A6E29EE096E08FE0E9
:1043000087E07FE077E06BE05FE057E04AE01BE0AA
:1043100030E00FE007E004E001E0C2A204E0C6A242
:1043200002E0CAA200E0CEA202A8A16903F070FFD9
:10433000D0A279E7D4A202A8A16903F069FFD64808
:10434000D6A1D0F80E2095E25D48006800F5004047
:1043500000EE100AF8EEC00A80EE880A10EE100A8D
:1043600006F06EFE41EC100BD0A153EC102B14E0C4
:104370009BE25AE35348006800F5004000EE100A43
:10438000F8EEC00A80EE880A10EE100A06F058FE19
:1043900041EC100BC9A153EC102B16A803F038FF09
:1043A00016AA03E0E88B012806D0C8A202A8A169DA
:1043B00003F02EFFC9A237E7CCA2F7E7288C01282B
:1043C00001D0CEA2F2E7D1A2F0E7B0F9000018B117
:1043D000012803D0D1A2E9E7D4A2E7E7D7A2E5E715
:1043E000B0F9020018B1012803D0D8A2DEE7DBA2A1
:1043F000DCE7DEA2DAE7E88A012801D0DFA2D5E710
:10440000E3A2D3E7288B012801D0E6A2CEE7EAA2F7
:10441000CCE76889802801D0ECA2C7E7EFA2C5E706
:10442000A88C08B1F1A2C1E7F4A2BFE7A88980284F
:1044300001D0F6A2BAE7F9A2B8E7B5F9220028B18F
:10444000012804D0022803D0F8A2AFE7F6E1F7E193
:10445000F8E100005C03002066D62344A070012030
:104460005C000020020000200000002050726573F4
:1044700073204D4F444520746F2020200000000021
:104480007374617274207363616E6E696E672E2E31
:104490000000000054000020547261636B696E6775
:1044A00020416374697665202000000054726163C6
:1044B0006B696E672048454C4420202000000000B6
:1044C000DC050020E0050020313A25342E31662538
:1044D0002520323A25342E31662525005472616339
:1044E0006B696E67204C617463686564000000004E
:1044F0005363616E6E696E672E2E2E202020202061
:1045000000000000E40000200080254450726F6726
:10451000726573733A25342E31662525000000003C
:10452000C800002048000020030000204F505449DC
:104530004F4E204D454E55202020202000000000E9
:10454000557365206D656E75202620776865656CEE
:104550000000000031204F55543120564F4C54413B
:10456000474520200000000032204F55543220568D
:104570004F4C5441474520200000000033204F5548
:10458000543120454E41424C45202020000000007F
:1045900034204F55543220454E41424C4520202076
:1045A0000000000035204F5554312052414E474500
:1045B000202020200000000036204F555432205289
:1045C000414E4745202020200000000037204F5555
:1045D0005431204C4154434820202020000000004A
:1045E00038204F555432204C41544348202020203D
:1045F0000000000039205349474E414C20494E20CD
:104600002020202000000000313020414320424F74
:104610004F535420202020200000000001000020E3
:10462000E070012031312058592D5343414E202054
:1046300020202020000000003132205349474E4105
:104640004C204F55542020202000000031332057AB
:104650004845454C204D4F44452020200000000097
:104660003134204252494748544E4553532020206C
:10467000000000005072657373206D656E752074C4
:104680006F202E2E00000000313520494E464F523B
:104690004D4154494F4E2000CCB20008537752652B
:1046A000763A253036582020200000004F555432ED
:1046B000203D202025342E31662525004F555431CC
:1046C000203D202025342E31662525004F555431BC
:1046D0003A2044495341424C4544200055736520DB
:1046E00074686520776865656C2E2E004F555431CF
:1046F0003A20454E41424C45442020004F5554320B
:104700003A2044495341424C454420004F555432CD
:104710003A20454E41424C45442020004F555431EB
:104720002052414E47453A20657272004F55543130
:104730002052414E47453A20373556004F555431A7
:104740002052414E47453A31353056004F5554328C
:104750002052414E47453A20657272004F555432FF
:104760002052414E47453A20373556004F55543276
:104770002052414E47453A31353056004C41544362
:1047800048313A2020204E4F524D414C000000004D
:104790004C41544348313A20464545444241434BFD
:1047A000000000004C41544348323A2020204E4F34
:1047B000524D414C000000004C41544348323A20D5
:1047C000464545444241434B000000005349474E93
:1047D00020494E3A4F50544943414C005349474EAB
:1047E00020494E3A20492F4F20312000414320429A
:1047F0004F4F53543A2020204F4E20004143204237
:104800004F4F53543A2020204F4646005349474EBD
:10481000204F55543A2020204F4646005349474EDA
:10482000204F55543A20492F4F20320057484545D4
:104830004C204D4F44453A6572720000EAA2B5E53E
:10484000EDA2B3E5F0A2B1E5F3A202A8A16903F0DD
:10485000DFFCB5F90800142801DA142002E064280E
:1048600001DD64202881B5F9080000F0B7FBB5F937
:104870000820EDA116A803F0CBFC16AAD4E4EFA201
:1048800002A8A16903F0C4FCF1A171E4F5A202A899
:10489000A16903F0BDFCF8A2C6E4FCA202A8A169CC
:1048A00003F0B6FC3A46FEA1E4E7B4F90C00B4F913
:1048B0000810FC4F4FF04F08884209D1B4F90E00A0
:1048C000B4F90A10884203D130883988884244D02C
:1048D000002000F0E7FEF448006841054FEA005070
:1048E00015D5002801DA002329E0A17BB7F800C024
:1048F00001F15000C3B2207B00EB5C024F32A8EB09
:104900005C0C4F316044D2B2C9B2C0B213E000288F
:1049100014DAA17B3B8801EB53004F3000F0FF0B12
:10492000207BA8EB530300F1500219444F30D2B260
:10493000C9B2C0B25B4601F0C1FC0AE0012338886D
:1049400002B2E0894F3001B2A0894F3000B201F0CD
:104950009DFA2089A0816089E08130883880D34821
:104960004FF440714FF6FF76006890FBF1F0208124
:10497000CF480068404290FBF1F06081304600F083
:1049800091FE304600F08EFE4F21202001F0E0FA2B
:104990004F217F2001F056FB20214F2001F0D8FA53
:1049A0007F214F2001F04EFB662338211A4608462E
:1049B00001F084FCBC48006841054FEA005013D563
:1049C000002801DA002325E0A07A247A00F15001C2
:1049D0003E88CBB204EB56014F31CAB24F30C1B260
:1049E000A8EB5600204410E0002812DAA17A3E8895
:1049F00001EB56004F30C3B2207AA8EB560400F109
:104A000050022144D2B2C9B24F30C0B201F056FCBC
:104A100054E00123388802B260894F3001B2208906
:104A20004F3000B201F032FA48E09BF80000012854
:104A300040D1A04EA04FDFF88482A0820120608286
:104A400080B200EB401101EB8010A18A3044405C41
:104A50003978401AC0EB002198F8000091FBF0F083
:104A6000C0F3C4012082CA02C0F3850042EA4010AC
:104A7000084300F017FEA08A0122C0F17F00C1B2F6
:104A8000A07C2030C0B201F074FB608A401C80B270
:104A9000608200E00EE05F28D2D3A08A401C80B282
:104AA000A0825F28CAD386494FF6FF7081F8009034
:104AB00000F0F8FD83489BF8001001706889802899
:104AC00024D00825DFF8008200244E465746D8F847
:104AD0000010E01C884201DA012000E0002002F012
:104AE00023FC05FB04F0C0F17F00C3B2641C05FB8E
:104AF00004F0C0F17F00C1B208220020CDE90067B8
:104B000001F062FEA4B20C2CE1D311E0002000F011
:104B1000C9FD002002F008FC4FF6FF747F23082235
:104B20001F210020009402F003FB204600F0BAFD94
:104B3000012002F0F9FB6548BE2100684843000CE3
:104B40005F2800D95F20C0F17F04CDE9009A554667
:104B50004E46E1B27F231822102001F035FE0020DE
:104B600002F0E2FBCDE90065E3B21822202111201A
:104B700001F02AFE21B00020BDEC028BBDE8F08FD1
:104B80000FB4F0B5524DBDB0002604462E6044AAC5
:104B90006846439903F02AFB6A464EA1104603F08B
:104BA00037FB1EAB14AA4CA1684603F0F5FC4E4F30
:104BB00014AA28A8B96903F02BFB1EAA32A8B96968
:104BC00003F026FB02F06EFA4FF4784000F06AFD25
:104BD0000022464B1146104601F0A2FD4FF6FF7031
:104BE00000F060FD072183E0574845454C204D4FBC
:104BF00044453A4C4F570000574845454C204D4FCF
:104C000044453A4D49440000574845454C204D4FD6
:104C100044453A20484900005345542042524947F0
:104C200048544E45535320004272696768746E655C
:104C30007373203D2025332E3064000053656520BA
:104C40006E616E6F7472616B20696E2000000000EF
:104C50007777772E74686F726C6162732E636F6DF5
:104C600000000000536176696E67732070617261A5
:104C70006D73202600000000706F776572696E67A3
:104C800020646F776E2E2E2E00000000556E686136
:104C90006E646C65642073746174653A0000000092
:104CA00025640000C60000205C000020DC05002018
:104CB000E005002044060020D5000020D40000209C
:104CC00001000020030000200A00002068000020EE
:104CD0002074004025730A00255B5E0A5D0A255B8F
:104CE0005E0A5D0A0000000030030020B8B2000830
:104CF000002000F0D3FE28A802F0B9F90821002016
:104D000000F0CCFE32A802F0B2F940F6FF70286045
:104D1000FDF7A5FE0746FDF7A2FE3946FDF7A3FE07
:104D2000A042F8D32E6002F0BDF93DB0F0BC5DF8B2
:104D300014FB70B50446C0F3072000F0D8F8050254
:104D4000E0B200F0D4F8284370BD000070B52B4CE1
:104D5000012504F11801E06820B1012819D00228CA
:104D600041D134E0254E1036D6E9000188423CD9C5
:104D70000020FEF738FCD4E90410C4E906102049ED
:104D8000884200D11F4971603160A060E5606060B9
:104D900029E00968A068814216D9017840882080FE
:104DA0006068001D6060DA2902D0C02902D004E0EA
:104DB000012000E00020FDF741FB21886068FEF73C
:104DC00013FC0220E0600EE00020E0600DE0FEF742
:104DD00022FC30B12188606808446060C4E90205A3
:104DE00001E0E06808B1012070BD002070BD10B581
:104DF000FFF7ACFF0128FBD010BD000080050020AC
:104E0000904F002018E0002038B54048016841F07C
:104E1000020101603D481030016841F480410160A9
:104E20003B48016821F080410160016841F0004188
:104E30000160031D196821F40041196034490C31E7
:104E40000A6822F040420A600C1F226862F0404269
:104E500022602F4A2432156825F0704545F0A045A0
:104E60001560056825F080650560056845F00065FA
:104E700005601D6825F400551D600B6823F0406334
:104E80000B60236863F040632360136823F47003AE
:104E900043F4A0031360036823F0805303600368A6
:104EA00043F000530360086840F0805008600868D1
:104EB00020F000500860106820F0706040F0A060A2
:104EC00010601448018821F040010180001F018812
:104ED00021F0400101804FF449710180018841F0C7
:104EE000400101800B4808300088009038BD094916
:104EF000091D0A889207FCD5064A083210800888E6
:104F0000C007FCD01088C0B27047000030380240A3
:104F10000004024004380040284808B5016841F008
:104F200002010160016841F001010160244801684B
:104F300021F040010160016841F0800101602148D9
:104F4000016821F080410160016841F00041016089
:104F50001B4920310A6822F4704242F480520A60F0
:104F6000416A21F0704141F0805141621348103094
:104F7000016841F0010101604FF080414FF0FF30C6
:104F8000C862088B40F20112104308830320088195
:104F9000088840F00100088000224FF47A730092E4
:104FA0000098401C00909842FADB4A6208BD4FF01E
:104FB0008041486A00224A6200B27047303802409D
:104FC000000402400000024010B5FFF7F0FFC001EE
:104FD000C11700EBD16020F3471010BD06496428CB
:104FE00004DA00EBC00202EB401001E040F6FF7073
:104FF000086070470020704720740040F949096834
:1050000090FBF1F201FB1200F74901EB800090EDFB
:10501000000A70472DE9F04FF44A0027DFF8D093DB
:105020005069DFF8D0A3411C4FF0320B51610428C6
:1050300050DD5761906910B1401E90614AE0906860
:10504000C0B9D068602802DC401CD06012E0106952
:105050000121602807DCE84BD7601954401CC2F8D6
:1050600018B0106106E09160E4494FF40040086018
:10507000E3490860E348DFF89083E44E0468E011F8
:10508000C8F80000D368C1B203EB431505EB8315E4
:1050900035441669A95599F80050854201DA89F816
:1050A00000109AF80050854201DD8AF80010C6EB26
:1050B000C60000EB461041F2883101EB0015D448E0
:1050C0000560C3EBC30505EB431301EB031141601E
:1050D000C8F80040CF49087801280AD1C2F818B0B2
:1050E000FF2397608AF800301761D7600F7089F846
:1050F00000709068BDE8F08F70472DE9F04FBB4F0E
:10510000B8484FF0000C396A491C39620068814286
:1051100001DBC7F820C0C1173A6A00EB917102EBBE
:10512000A1017962814201DB081A7862B548006802
:105130003865B96A884200DDB86202F00303012BCA
:1051400002D0022B03D003E0AF49086000E0F8640E
:10515000B14800681044FFF751FFDFF8C092B6EE87
:10516000001A5BB9D7ED130AF8EEE00A60EE200AE8
:1051700099ED000A00EE810A89ED000A386AFFF70E
:105180003DFFD7ED0C0AA649F8EEE00A0978890739
:1051900020EE200ABDEEC00A10EE100A01D401254F
:1051A0002C46A049A04EDFF868B20988DFF84CA26F
:1051B00049054FF0010806D431680125DAF80000EE
:1051C000012904D007E0F96BC6F80080084480F498
:1051D0000041CBF800109549786A09680844FFF748
:1051E0000DFF63B9D7ED130A9148F8EEE00A60EEBF
:1051F000200A90ED000A00EE810A80ED000A786A2C
:10520000FFF7FCFED7ED0B0A86487D4AF8EEE00A70
:105210000068030520EE200ABDEEC00A10EE101A49
:1052200005D4336801241168012B04D007E03B6CDE
:10523000C6F80080194481F40043CBF804307D4B5C
:10524000B3EE000ADFED7C1A7C4E9FED7D1ADFED98
:105250007D0A396A61B17D6A7DB37B4B7B4E9FEDE0
:105260007C0A47F6FC7401294ED0012D6DD089E0EF
:1052700099ED002A494622EE000A10EE104A89ED07
:10528000000A9C4202DDC7ED111A08E010EE103A48
:10529000B34202D987ED111A01E087ED110A012D01
:1052A00003D1C1ED000AC7ED110A6A4BC9ED000A2E
:1052B000B96A1960C7F828C064E0FFE7664D29683D
:1052C00011B1491E01242960594991ED002A22EEAD
:1052D000000A10EE105A81ED000A9D4202DDC7ED72
:1052E000121A08E010EE103AB34202D987ED121AF2
:1052F00001E087ED120A012C03D1C1ED000AC7EDD0
:10530000120AC1ED000A3DE019683963D6ED000AC2
:1053100097ED111ADAF80060F8EEE00A611A5546C6
:1053200061EE200A20EE800ABDEEC00A10EE103AAF
:1053300033448B4202DC49428B4201DA296000E0AF
:105340002B60DAF80010F9631CE01968F962D6EDF9
:10535000000A97ED121A1568F8EEE00A611A61EE7C
:10536000200A20EE800ABDEEC00A10EE103A2B444F
:105370008B4202DC49428B4201DA116001E019469E
:1053800013603964F969491CA1F55063F961AD3BBB
:1053900026D1164BC7F81CC054337C682F4E304DB5
:1053A0004FF0805803F11001052C5BDA2A8B012A9B
:1053B0000BD1420506D4C6F800807A6B1A60C1F89A
:1053C00000C002E04FF480523260EA8A012A05D11F
:1053D000000503D4B86B5860C1F804C0641C7C603D
:1053E00088E6000028000020082B0020A0050020EF
:1053F000D4000020D5000020447101206C00002062
:1054000070000020D8000020680000204406002022
:10541000E4000020010000202C000020E00000201B
:10542000540000205C000020D0000020300000204C
:10543000CC00002000F8FF4600F8FF4600F8FFC649
:1054400000F8FFC600000000480000201C000020FB
:1054500000000038340000204C00002018040240F6
:10546000A0700120A946B5F818C0814DDFF8FCE115
:105470006C1C4FF4004BBCF1010F42D15FEA405C61
:105480003BD4C6F800801E68D7F834C0A6EB0C06E3
:10549000CEF80060D9F830C0B04606FB0CF64FF0ED
:1054A000640C96FBFCF6D1F800C066440E605E45C5
:1054B00002DDC1F800B002E0AE4200DC0C60D9F8B9
:1054C00028C008FB0CF64FF0640C96FBFCF6D1F8F4
:1054D00000C0B444654E1036C6F800C0DAF800804B
:1054E000C444CAF800C0DC4502DDCAF800B008E0D8
:1054F000AC4506DCCAF8004003E04FF4805CC6F817
:1055000000C0B9F816C04E46BCF1010F7FF468AF79
:1055100000053FF565AF5868BB6BC01ACEF80400B4
:105520004B68776B00FB07335F464B60BB4201DD86
:105530004F6002E0AB4200DC4C604968D9F82C3087
:1055400000FB03104949103148601168084410609D
:10555000B84201DD1760CDE5A842FCDC1460C9E566
:105560002DE9F047434D288AC00765D0424C6914A5
:1055700021608E10266048102060800320604FF468
:105580002870401EFDD1884621604FF000602060E9
:10559000DFF8E890D9F80000FFF7CBFB334F5C3F12
:1055A0007863C4F8008026604FF0005020602660C9
:1055B0004010206080142060D9F80400FFF7B9FB88
:1055C000B8632F482F49304A0068304B040502D495
:1055D000DC8A012C08D0400502D4188B012803D0A6
:1055E0002B48007818B10EE0086810600EE0B7F99B
:1055F0000030786B584340107863B0F5004F02DB01
:1056000047F6FF707863786B10600860214908885E
:1056100008B1401E08802048007818B11F4C20783F
:1056200018B105E0FFF769FD02E0FFF7F3FC207019
:10563000288A20F001002882BDE8F0871848016818
:1056400041F0010101600B4842F6E0610185012152
:10565000C1620022028681814FF0E0224102C2F83D
:105660000011018841F0010101807047FC05002014
:105670000080FFFF00000140180C0240E400002001
:105680005C000020DC000020D8000020A070012079
:10569000C40000200E0000200000002002000020B6
:1056A000443802400D4910B50968CC8AC882098B7C
:1056B00002F04DFC204610BD70B50E46054601F0C7
:1056C00053FE0446284601F056FE3046FFF7EAFF37
:1056D0000546204601F04FFE284670BD24060020F6
:1056E00000B90D484078704710B501F0F6FD0B4841
:1056F0000068C17C407D0844C0B210BD052800D3BD
:105700000420C0EBC001064800EB8100C17C407D55
:105710000844C0B27047000094C700082406002067
:10572000A87101202DE9FC47B04E18B93068C06857
:10573000FFF7D6FF34684FF6FF79627D6779104432
:10574000C5B2E3787819984224D801F033FE306866
:10575000427DD2B1018A11F4405F16D00B044FEAAA
:10576000C17301D50BB910E003B14B4600934479E6
:105770002244521CD3B2890401D5827800E0027918
:10578000641CE1B2007801F013FF306841792944CC
:10579000417120E0218ADFF858C25FEA81780AD59A
:1057A0009CF8001011B9B918994202D30120BDE844
:1057B000FC8760710FE09CF8002012B9C01AC5B2D6
:1057C0006371C80700D04846CDE90050A2786178DF
:1057D000207801F0C5FF3068017801710020E6E70C
:1057E00010B501F07AFD8349002008707F48804998
:1057F0000068008A40F30020401C087010BD7B4800
:1058000010B50068027981788A4200D90171427925
:10581000C1788A4200D94171017981714179C171A0
:1058200001F0C8FDBDE8104001F0EABC6F49162246
:1058300009680978401AC0B2B0FBF2F0401C00EBD6
:10584000400202EBC00001EB4000C0B27047F8B567
:10585000664C05462168088A02044FEAC07001D5EB
:1058600008B911E008B14FF6FF70009008790A7D81
:105870004B79497802444E19D2B2B34201D3591B35
:10588000491CC9B201F094FE20680179027D1144DF
:105890000171F8BDFEB504460A2870D00D2C6ED0FB
:1058A000524E092C30680BD0C068FFF719FF05462F
:1058B0003068027981788A4223D9491C01715EE0FF
:1058C0000079FFF7B3FF316805460A78904256D059
:1058D000C868FFF705FF3468217CC90701D04FF67F
:1058E000FF710091617863790A18934201D3191A04
:1058F000491CC9B220792A4601F05AFE3068057168
:105900003DE0D0E90221204600F036F901000DD03B
:105910000C7804B98C783068028A920507D4037930
:10592000621E1A4483789A4201DD0120FEBDC268DE
:10593000477953684278BA1AAA4201DB002201E093
:10594000AA1A521ED2B28DE80E00791BC378827853
:10595000491CC9B2007900F05BFE30680179027D14
:105960008B181D1983789D4201D9037107E02144EA
:10597000017122B1C068FFF7B3FEFFF768FF002096
:10598000FEBD70B50446FFF72BFF0A2C0FD0174D54
:105990000D2C10D02046FFF77DFF98B12868007CC1
:1059A00000060FD40020FFF7BDFE58B907E0002025
:1059B000FFF7B8FE06E028680178017102E0204692
:1059C000FFF768FFBDE8704019E770B50E46054661
:1059D00001F0CAFC0446284601F0CDFC3046FFF732
:1059E000D0FF2046BDE8704001F0C5BC2406002071
:1059F000140600203D06002070B5254D2968CC68AE
:105A000000B92448C86002698A6002788A744078C4
:105A1000C874C6B201F0F9FB2868761E4178427955
:105A200031448A4205DAC9B24171C278914200D943
:105A3000427101798278914200D911468171417990
:105A4000C17101F0DDFB204670BD10B501F045FCD1
:105A50000F480068C06810BD70B50E46054601F0DD
:105A600083FC0446284601F086FC3046FFF7C4FF5D
:105A70000546204601F07FFC284670BD052800D36E
:105A800004200549C0EBC00001EB8000C0687047EE
:105A90002406002094C70008A871012070B50C46A8
:105AA000054601F01AFC12480268907C10FB05F0D4
:105AB000D37CC0B213FB0431527DBDE87040491E57
:105AC0001144C9B200F016B82DE9F04115460E4652
:105AD000044601F049FC0746204601F04CFC2946EB
